:100000000C943C000C9464000C9464000C94640008
:100010000C9464000C9464000C9464000C946400D0
:100020000C9464000C9464000C9464000C946400C0
:100030000C9464000C9464000C9464000C946400B0
:100040000C945C050C9464000C9460020C949C026B
:100050000C9464000C9464000C9464000C94640090
:100060000C94AA060C9464001F1C1F1E1F1E1F1F49
:100070001E1F1E1F57037D0611241FBECFEFD8E0A1
:10008000DEBFCDBF11E0A0E0B1E0E6E3F0E102C0E9
:1000900005900D92AE35B107D9F712E0AEE5B1E0AB
:1000A00001C01D92AD3CB107E1F710E0C8E7D0E018
:1000B00004C02297FE010E941508C437D107C9F772
:1000C0000E94A7030C9419080C940000CF92DF92B1
:1000D000EF92FF92CF93DF93EB01BC018EE591E0AD
:1000E0000E94EC0360E28EE591E00E94EE036881DD
:1000F00070E06053784F4AE050E08EE591E00E9456
:1001000074046FE28EE591E00E94EE034AE050E055
:1001100069818EE591E00E947A046FE28EE591E0BC
:100120000E94EE034AE050E06A818EE591E00E9471
:100130007A0460E28EE591E00E94EE034AE050E02E
:100140006B818EE591E00E947A046AE38EE591E08E
:100150000E94EE034AE050E06C818EE591E00E943F
:100160007A046AE38EE591E00E94EE034AE050E0F3
:100170006D818EE591E00E947A0460E071E08EE589
:1001800091E00E94EC03CE010E942605AB01BC0168
:100190002AE030E08EE591E00E94670464E071E0BF
:1001A0008EE591E00E94EC03CE010E94260520E836
:1001B00031E541E050E00E94F10769017A012AE04F
:1001C00030E0B701A6018EE591E00E94670469E086
:1001D00071E08EE591E00E94EC038EE591E0DF9105
:1001E000CF91FF90EF90DF90CF900C94F503CF92DA
:1001F000EF920F93CF93DF93CDB7DEB7EC970FB6A7
:10020000F894DEBF0FBECDBF40E051EE60E070E07D
:100210008EE591E00E94D702C12CE12C00E021E0A4
:1002200041E060E070E0CE01C7960E941205BE0179
:10023000695C7F4F86E191E00E94660021E041E029
:1002400061E070E0CE01C1960E941205BE016F5CB4
:100250007F4F8AE191E00E94660021E041E069ED74
:1002600077E0CE018B960E941205BE01655D7F4F3F
:100270008EE191E00E94660022E041E069ED77E0C6
:10028000CE0185960E941205BE016B5D7F4F82E212
:1002900091E00E9466002BE141E069ED77E0CE013C
:1002A0004F960E941205BE01615E7F4F86E291E08B
:1002B0000E9466002BE142E069ED77E0CE014996AD
:1002C0000E941205BE01675E7F4F8AE291E00E94A4
:1002D00066002BE14CE069ED77E0CE0143960E9489
:1002E0001205BE016D5E7F4F8EE291E00E946600B6
:1002F000CE0143960E942605AB01BC01405F514FE1
:100300006F4F7F4FCE010D960E94B404BE01635F14
:100310007F4F82E391E00E946600CE0143960E94E7
:100320002605AB01BC0140585E4A6E4F7F4FCE019F
:1003300007960E94B404BE01695F7F4F86E391E097
:100340000E946600CE0143960E942605AB01BC01C7
:100350004058554C664F7F4FCE0101960E94B40421
:10036000BE016F5F7F4F8AE391E00E946600EC96CA
:100370000FB6F894DEBF0FBECDBFDF91CF910F91C6
:10038000EF90CF9008950895FC0184859585FC0138
:10039000E05CFF4F20813181FC01EE5BFF4F8081EB
:1003A0009181281B390B2F733327C9010895FC0154
:1003B00084859585FC01E05CFF4F40815181FC0103
:1003C000EE5BFF4F208131814217530741F00190CE
:1003D000F081E02DE80FF91F208130E002C02FEFFF
:1003E0003FEFC9010895FC0184859585FC01E05C1F
:1003F000FF4F40815181FC01EE5BFF4F2081318135
:100400004217530781F0A081B181A80FB91F8C91C9
:10041000208131812F5F3F4F2F733327318320831A
:10042000282F30E002C02FEF3FEFC9010895FC01F3
:1004300086859785FC01E05CFF4FDC01AE5BBF4F1A
:10044000408151812D913C91119742175307C1F77B
:100450000895CF93DF93FC0186859785DC01A05C2E
:10046000BF4F2D913C9111972F5F3F4F2F73332733
:10047000EC01CE5BDF4F4881598124173507D9F352
:100480000D90BC91A02DA80FB91F6C93A685B785C0
:10049000A05CBF4F11963C932E93A689B7892C91EF
:1004A00081E090E0058C02C0880F991F0A94E2F762
:1004B000282B2C9381E090E0DF91CF91089508954F
:1004C0001F920F920FB60F9211242F933F934F93C9
:1004D0008F939F93EF93FF934091C6008091010209
:1004E0009091020201968F73992720910302309117
:1004F00004028217930759F0E0910102F091020281
:10050000EF53FE4F40839093020280930102FF91CC
:10051000EF919F918F914F913F912F910F900FBE2F
:100520000F901F9018958EE591E00E94C401892BD1
:1005300011F00C945F0208951F920F920FB60F9264
:1005400011242F933F938F939F93EF93FF932091C9
:10055000BD013091BE018091BF019091C00128176B
:10056000390731F48091C1008F7D8093C10014C0A0
:10057000E091BF01F091C001E358FE4F20818091CE
:10058000BF019091C00101968F7399279093C0018C
:100590008093BF012093C600FF91EF919F918F91AF
:1005A0003F912F910F900FBE0F901F901895CF92F3
:1005B000DF92EF92FF92CF93DF93EC016A017B0110
:1005C000411581EE580761057105F9F0EC89FD8947
:1005D00081E090E00E8C02C0880F991F0A94E2F728
:1005E000808360E079E08DE390E0A70196010E94AE
:1005F000F107215031094109510956954795379521
:100600002795211580E1380798F0EC89FD89108243
:1006100060E874E88EE190E0A70196010E94F1077E
:10062000215031094109510956954795379527952C
:10063000E889F9893083EA89FB892083EE89FF897B
:10064000408181E090E09C010A8C02C0220F331FA0
:100650000A94E2F7422B4083EE89FF8940819C0196
:100660000B8C02C0220F331F0A94E2F7422B408307
:10067000EE89FF8940819C010C8C02C0220F331F40
:100680000A94E2F7422B4083EE89FF8920810D8C8A
:1006900002C0880F991F0A94E2F780958223808315
:1006A000DF91CF91FF90EF90DF90CF90089510925F
:1006B00061011092600188EE93E0A0E0B0E08093C9
:1006C000620190936301A0936401B093650182E499
:1006D00091E090935F0180935E0181EC91E09093B3
:1006E0006B0180936A018DE791E090936D01809397
:1006F0006C0185EC90E090936F0180936E0184EC27
:1007000090E0909371018093700180EC90E0909361
:1007100073018093720181EC90E090937501809356
:10072000740186EC90E0909377018093760184E0E9
:100730008093780183E08093790187E080937A0148
:1007400085E080937B0181E080937C0108950E9485
:10075000A6050E94F700C3E9D2E00E94C3012097DA
:10076000E1F30E949302F9CFCF92DF92EF92FF92D2
:100770000F931F93CF93DF936C01EB017A01E60E89
:10078000F71E00E010E00BC06991D601ED91FC91DD
:100790000190F081E02DC6010995080F191FCE15B3
:1007A000DF0591F7C801DF91CF911F910F91FF9065
:1007B000EF90DF90CF900895DB010D900020E9F7D6
:1007C000AD0141505109461B570BDC01ED91FC91E5
:1007D0000280F381E02D09940C94DC03DC01ED919F
:1007E000FC910190F081E02D09940F931F93CF931A
:1007F000DF93EC016DE00E94EE038C016AE0CE0114
:100800000E94EE039C01200F311FC901DF91CF919F
:100810001F910F9108954F925F926F927F929F92D6
:10082000AF92BF92CF92DF92EF92FF920F931F93FE
:10083000CF93DF93CDB7DEB7A1970FB6F894DEBFA5
:100840000FBECDBF5C016A017B01922E19A281E02F
:10085000821710F08AE0982E8E010F5D1F4F492CF1
:10086000512C612C712CC701B601A30192010E9489
:10087000F1078C2D929E80191124015011098A30A4
:1008800010F4805D01C0895CF801808369017A0100
:10089000C114D104E104F10431F7B801C5010E948B
:1008A000DC03A1960FB6F894DEBF0FBECDBFDF917B
:1008B000CF911F910F91FF90EF90DF90CF90BF905D
:1008C000AF909F907F906F905F904F90089521150B
:1008D000310541F4DC01ED91FC910190F081E02DB6
:1008E000642F09940C940B049A01AB0160E070E052
:1008F0000C9467049A01462F50E060E070E00C947D
:100900006704803D27E0920710F0805D974050E03B
:10091000E8E6F0E021E02E1B04C03491430F511DA6
:100920003196322F3E0F3617C0F3633038F09C01FA
:1009300023703327232B11F44F5F5F4F6DE671E077
:10094000869F9001879F300D969F300D1124215076
:10095000310903969695879596958795280F391FA7
:10096000240F351FC9010895CF92DF92EF92FF92B5
:10097000CF93DF93EC01405853446D467843ECE34A
:10098000CE2ED12CE12CF12CCB01BA01A70196017E
:100990000E94F1076D83CA01B901A70196010E9467
:1009A000F1076C83CA01B90128E130E040E050E072
:1009B0000E94F1076B83188243E95EEFE8818E2F76
:1009C0008370A1E009F0A0E08A2F90E0BC01635998
:1009D0007E4F2617370740F0BA01681B790B260FA8
:1009E000371FEF5FE883EACF81E089838981E82FB1
:1009F000F0E0E959FF4FE491AA2319F0823009F49D
:100A0000EF5FF0E02E173F0720F02E1B3F0B8F5FAC
:100A1000ECCF2F5F2A83DF91CF91FF90EF90DF9093
:100A2000CF900895CF92EF920F93FC01603D87E045
:100A3000780710F0605D77406083418322830383F1
:100A4000E482C5820F91EF90CF9008950F931F938A
:100A5000CF93DF93EC014A816981888190E00E9405
:100A600081049C01A8E1B0E00E94DA079B01AC017F
:100A70008B81280F311D411D511DACE3B0E00E9458
:100A8000E6079B01AC018C81280F311D411D511DD2
:100A90000E94E6078B019C018D81080F111D211D0D
:100AA000311D00581C4B2249374CB801C901DF9158
:100AB000CF911F910F9108951F920F920FB60F9231
:100AC00011242F933F938F939F93AF93BF93809164
:100AD000050290910602A0910702B09108023091A0
:100AE0000D02232F2D5F2D3720F40196A11DB11D7E
:100AF00005C0232F2A570296A11DB11D20930D0278
:100B00008093050290930602A0930702B093080217
:100B10008091090290910A02A0910B02B0910C02FF
:100B20000196A11DB11D8093090290930A02A09322
:100B30000B02B0930C02BF91AF919F918F913F91A7
:100B40002F910F900FBE0F901F901895789484B539
:100B5000826084BD84B5816084BD85B5826085BDB9
:100B600085B5816085BDEEE6F0E08081816080839F
:100B7000E1E8F0E010828081826080838081816082
:100B80008083E0E8F0E0808181608083E1EBF0E049
:100B9000808184608083E0EBF0E0808181608083ED
:100BA000EAE7F0E0808184608083808182608083D6
:100BB0008081816080838081806880831092C10001
:100BC000089520913D0230E080913E02281B3109BA
:100BD000C901089580913E0290913D02891750F419
:100BE000E82FF0E0E15CFD4F208130E08F5F8093E3
:100BF0003E0202C02FEF3FEFC9010895E0913E028F
:100C000080913D02E81730F4F0E0E15CFD4F208177
:100C100030E002C02FEF3FEFC90108950895CF9251
:100C2000DF92EF92FF920F931F93CF93DF937C019C
:100C3000CB018A0120911A02222391F0EB016B0172
:100C4000C40ED51E09C06991D701ED91FC910190A8
:100C5000F081E02DC7010995CC15DD05A1F703C092
:100C6000642F0E948106C801DF91CF911F910F91DF
:100C7000FF90EF90DF90CF900895CF93DF931F9276
:100C8000CDB7DEB7698320911A022223D1F02091DB
:100C90001B02203240F021E030E0FC01338322834C
:100CA00020E030E015C080911C02E82FF0E0E35E08
:100CB000FD4F998190838F5F80931C0280931B026C
:100CC00005C061E0CE0101960E94810621E030E07E
:100CD000C9010F90DF91CF910895FC011382128218
:100CE00048EE53E060E070E0448355836683778389
:100CF00082E591E09183808308958EE092E00C94E8
:100D00006D06613298F420916802243089F4609372
:100D10006102FC0189E892E0DC0102C021912D937F
:100D20002A2F281B2617D0F380E0089581E008952C
:100D300082E0089585ED8093BC008091BC0084FD25
:100D4000FCCF10926802089585EC8093BC0010924D
:100D5000680208951F920F920FB60F9211242F93DD
:100D60003F934F935F936F937F938F939F93AF9333
:100D7000BF93EF93FF938091B900887F803609F489
:100D80009FC058F5883209F45BC090F4803109F4B3
:100D900052C038F4882309F4F8C0883009F0F9C04B
:100DA0004AC0883109F44CC0803209F0F2C05CC0FE
:100DB000803409F46BC038F4803309F455C08833AB
:100DC00009F0E7C054C0803509F454C0883509F4EF
:100DD00062C0883409F0DDC0DAC0883909F4CBC0BC
:100DE000A8F4883709F46CC038F4883609F468C070
:100DF000803709F0CEC064C0883809F4BCC080399F
:100E000009F464C0803809F0C4C060C0803B09F4B4
:100E10008AC038F4803A09F46BC0883A09F0B9C046
:100E200082C0803C09F4ABC0883C09F4A8C0883B70
:100E300009F0AFC08DC0809167028093BB0012C0E3
:100E40009091640280916302981788F58091640202
:100E5000E82FF0E0E759FD4F90819093BB008F5F42
:100E60008093640285EC88C080935F0290C0809379
:100E70005F0256C0809164029091BB00E82FF0E0C1
:100E8000E759FD4F90838F5F8093640290916402D5
:100E9000809163026DC0809164029091BB00E82F45
:100EA000F0E0E759FD4F90838F5F8093640280915B
:100EB000660281116CC081E08093650284EA60C0A3
:100EC00083E08093680210926002CCCF8091600230
:100ED000803208F050C0809160029091BB00E82FF2
:100EE000F0E0E355FD4F90838F5F80936002BACFAF
:100EF00080916002803230F4E0916002F0E0E355CE
:100F0000FD4F10820E949A0660916002E091A90252
:100F1000F091AA0270E08DEA92E0099510926002C9
:100F20000E94A40636C084E0809368021092620298
:100F300010926102E091AB02F091AC0209958091B0
:100F40006102811105C081E08093610210928902E3
:100F500080916202E82FF0E0E757FD4F9081909377
:100F6000BB008F5F80936202909162028091610268
:100F7000981708F477CF85E88093BC000AC085EC09
:100F80008093BC001092680204C010925F020E941D
:100F90009A06FF91EF91BF91AF919F918F917F91B1
:100FA0006F915F914F913F912F910F900FBE0F90D6
:100FB0001F901895A29FB001B39FC001A39F01D0BD
:100FC000B29F700D811D1124911D08950E94DA07B2
:100FD000A59F900DB49F900DA49F800D911D11248D
:100FE0000895A1E21A2EAA1BBB1BFD010DC0AA1F6A
:100FF000BB1FEE1FFF1FA217B307E407F50720F082
:10100000A21BB30BE40BF50B661F771F881F991FFC
:101010001A9469F760957095809590959B01AC0145
:10102000BD01CF010895EE0FFF1F0590F491E02D53
:061030000994F894FFCFC3
:10103600203D200073202F2000642073696E6365B5
:1010460020313937300064743000647431006474C0
:10105600320064743300647434006474350064745C
:101066003600647437006474380064743900000014
:1010760000002902B403C401F301D70117020000DE
:0E10860000003D060F06E105EA05FE050E0618
:00000001FF
