:100000000C943C000C9464000C9464000C94640008
:100010000C9464000C9464000C9464000C946400D0
:100020000C9464000C9464000C9464000C946400C0
:100030000C9464000C9464000C9464000C946400B0
:100040000C9472010C9464000C94F5020C9431032E
:100050000C9464000C9464000C9464000C94640090
:100060000C9495070C9464001F1C1F1E1F1E1F1F5D
:100070001E1F1E1FEC03680711241FBECFEFD8E020
:10008000DEBFCDBF11E0A0E0B1E0ECE0F2E102C0E4
:1000900005900D92AE35B107D9F712E0AEE5B1E0AB
:1000A00001C01D92A13DB107E1F710E0C8E7D0E023
:1000B00004C02297FE010E940009C437D107C9F786
:1000C0000E943C040C9404090C940000CF93DF932D
:1000D00000D000D000D0CDB7DEB740E051EE60E0F8
:1000E00070E087E691E00E946C0340E051E069E037
:1000F00071E0CE0101960E94C905CE0101960E94D1
:10010000650626960FB6F894DEBF0FBECDBFDF9111
:10011000CF910895CF93DF93CDB7DEB762970FB637
:10012000F894DEBF0FBECDBF0E9486062D873E87A6
:100130004F87588B698B7A8B86E0FE013D96DE01F6
:10014000179601900D928A95E1F76F8170E06053E8
:10015000784F4AE050E087E691E00E941D056FE28B
:1001600087E691E00E9483044AE050E0688587E6D4
:1001700091E00E9423056FE287E691E00E948304EC
:100180004AE050E0698587E691E00E94230560E23D
:1001900087E691E00E9483044AE050E06A8587E6A2
:1001A00091E00E9423056AE387E691E00E948304C0
:1001B0004AE050E06B8587E691E00E9423056AE300
:1001C00087E691E00E9483044AE050E06C8587E670
:1001D00091E00E94230587E691E00E948A0465E190
:1001E00071E087E691E00E948104CE0107960E94AB
:1001F0002F06AB01BC012AE030E087E691E00E94C7
:100200000905CE0107960E942F06AB01BC0142569C
:10021000554C664F7F4FCE0101960E946B056BE2F5
:1002200071E087E691E00E948104698170E060538B
:10023000784F4AE050E087E691E00E941D056FE2AA
:1002400087E691E00E9483044AE050E06A8187E6F5
:1002500091E00E9423056FE287E691E00E9483040B
:100260004AE050E06B8187E691E00E94230560E25E
:1002700087E691E00E9483044AE050E06C8187E6C3
:1002800091E00E9423056AE387E691E00E948304DF
:100290004AE050E06D8187E691E00E9423056AE321
:1002A00087E691E00E9483044AE050E06E8187E691
:1002B00091E00E94230587E691E00E948A0487E688
:1002C00091E00E948A0468EB7BE080E090E00E946D
:1002D000F80162960FB6F894DEBF0FBECDBFDF9176
:1002E000CF9108951F920F920FB60F9211242F9362
:1002F0003F938F939F93AF93BF9380915E019091B3
:100300005F01A0916001B091610130916601232FDE
:100310002D5F2D3720F40196A11DB11D05C0232F9F
:100320002A570296A11DB11D2093660180935E019C
:1003300090935F01A0936001B0936101809162018D
:1003400090916301A0916401B09165010196A11D96
:10035000B11D8093620190936301A0936401B093F7
:100360006501BF91AF919F918F913F912F910F9018
:100370000FBE0F901F9018950F931F938FB7F8948F
:1003800000915E0110915F01209160013091610147
:100390008FBFB801C9011F910F9108950F931F934B
:1003A0009FB7F8940091620110916301209164015C
:1003B0003091650186B5A89B06C08F3F21F00F5F85
:1003C0001F4F2F4F3F4F9FBF322F212F102F00273E
:1003D000080F111D211D311D42E0000F111F221FAA
:1003E000331F4A95D1F7B801C9011F910F910895A4
:1003F000CF92DF92EF92FF92CF93DF936B017C015C
:100400000E94CE01EB010EC00E94CE016C1B7D0B41
:10041000683E734038F081E0C81AD108E108F1085D
:10042000C851DC4FC114D104E104F10469F7DF9134
:10043000CF91FF90EF90DF90CF900895789484B59E
:10044000826084BD84B5816084BD85B5826085BDD0
:1004500085B5816085BDEEE6F0E0808181608083B6
:10046000E1E8F0E010828081826080838081816099
:100470008083E0E8F0E0808181608083E1EBF0E060
:10048000808184608083E0EBF0E080818160808304
:10049000EAE7F0E0808184608083808182608083ED
:1004A0008081816080838081806880831092C10018
:1004B0000895FC0184859585FC01E05CFF4F208157
:1004C0003181FC01EE5BFF4F80819181281B390B4C
:1004D0002F733327C9010895FC0184859585FC019C
:1004E000E05CFF4F40815181FC01EE5BFF4F2081BA
:1004F00031814217530741F00190F081E02DE80F60
:10050000F91F208130E002C02FEF3FEFC9010895AD
:10051000FC0184859585FC01E05CFF4F40815181A1
:10052000FC01EE5BFF4F208131814217530781F0C0
:10053000A081B181A80FB91F8C91208131812F5FDB
:100540003F4F2F73332731832083282F30E002C0A1
:100550002FEF3FEFC9010895FC0186859785FC01C7
:10056000E05CFF4FDC01AE5BBF4F408151812D91BC
:100570003C91119742175307C1F70895CF93DF932A
:10058000FC0186859785DC01A05CBF4F2D913C91D5
:1005900011972F5F3F4F2F733327EC01CE5BDF4F57
:1005A0004881598124173507D9F30D90BC91A02DAE
:1005B000A80FB91F6C93A685B785A05CBF4F119695
:1005C0003C932E93A689B7892C9181E090E0058C0D
:1005D00002C0880F991F0A94E2F7282B2C9381E020
:1005E00090E0DF91CF91089508951F920F920FB67A
:1005F0000F9211242F933F934F938F939F93EF93D9
:10060000FF934091C60080910A0290910B020196DF
:100610008F73992720910C0230910D028217930756
:1006200059F0E0910A02F0910B02E653FE4F40832D
:1006300090930B0280930A02FF91EF919F918F910B
:100640004F913F912F910F900FBE0F901F901895D3
:1006500087E691E00E945902892B11F00C94F40274
:1006600008951F920F920FB60F9211242F933F936C
:100670008F939F93EF93FF932091C6013091C70111
:100680008091C8019091C9012817390731F48091F0
:10069000C1008F7D8093C10014C0E091C801F0912A
:1006A000C901EA57FE4F20818091C8019091C9018C
:1006B00001968F7399279093C9018093C801209365
:1006C000C600FF91EF919F918F913F912F910F90D5
:1006D0000FBE0F901F901895CF92DF92EF92FF926E
:1006E000CF93DF93EC016A017B01411581EE58073E
:1006F00061057105F9F0EC89FD8981E090E00E8CCF
:1007000002C0880F991F0A94E2F7808360E079E0C5
:100710008DE390E0A70196010E94DC082150310989
:10072000410951095695479537952795211580E13F
:10073000380798F0EC89FD89108260E874E88EE152
:1007400090E0A70196010E94DC082150310941097F
:1007500051095695479537952795E889F98930834A
:10076000EA89FB892083EE89FF89408181E090E05E
:100770009C010A8C02C0220F331F0A94E2F7422B1D
:100780004083EE89FF8940819C010B8C02C0220FBF
:10079000331F0A94E2F7422B4083EE89FF894081A0
:1007A0009C010C8C02C0220F331F0A94E2F7422BEB
:1007B0004083EE89FF8920810D8C02C0880F991F2C
:1007C0000A94E2F7809582238083DF91CF91FF9096
:1007D000EF90DF90CF90089510926A011092690116
:1007E00088EE93E0A0E0B0E080936B0190936C0101
:1007F000A0936D01B0936E0181E491E09093680144
:10080000809367018AEC91E0909374018093730167
:1008100086E891E0909376018093750185EC90E0F5
:10082000909378018093770184EC90E090937A0123
:100830008093790180EC90E090937C0180937B0120
:1008400081EC90E090937E0180937D0186EC90E0B6
:100850009093800180937F0184E08093810183E005
:100860008093820187E08093830185E080938401F7
:1008700081E08093850108950E941E020E94660017
:10088000C8E2D3E00E948A002097E1F30E94280387
:10089000F9CFCF92DF92EF92FF920F931F93CF93F6
:1008A000DF936C01EB017A01E60EF71E00E010E029
:1008B0000BC06991D601ED91FC910190F081E02D82
:1008C000C6010995080F191FCE15DF0591F7C8015C
:1008D000DF91CF911F910F91FF90EF90DF90CF901C
:1008E0000895DB010D900020E9F7AD014150510959
:1008F000461B570BDC01ED91FC910280F381E02D4A
:1009000009940C947104DC01ED91FC910190F0814B
:10091000E02D09940F931F93CF93DF93EC016DE0CB
:100920000E9483048C016AE0CE010E9483049C0132
:10093000200F311FC901DF91CF911F910F910895B1
:100940004F925F926F927F929F92AF92BF92CF929F
:10095000DF92EF92FF920F931F93CF93DF93CDB768
:10096000DEB7A1970FB6F894DEBF0FBECDBF5C0116
:100970006A017B01922E19A281E0821710F08AE0B1
:10098000982E8E010F5D1F4F492C512C612C712C1C
:10099000C701B601A30192010E94DC088C2D929E32
:1009A00080191124015011098A3010F4805D01C0B2
:1009B000895CF801808369017A01C114D104E104E2
:1009C000F10431F7B801C5010E947104A1960FB678
:1009D000F894DEBF0FBECDBFDF91CF911F910F9175
:1009E000FF90EF90DF90CF90BF90AF909F907F905F
:1009F0006F905F904F9008952115310541F4DC010F
:100A0000ED91FC910190F081E02D642F09940C94FC
:100A1000A0040F931F93CF93DF93EC010E94FC047B
:100A20008C01CE010E948A049C01200F311FC90154
:100A3000DF91CF911F910F9108959A01AB0160E072
:100A400070E00C94FC049A01462F50E060E070E0E6
:100A50000C94FC04803D27E0920710F0805D9740E5
:100A600050E0E8E6F0E021E02E1B04C03491430F93
:100A7000511D3196322F3E0F3617C0F3633038F0D8
:100A80009C0123703327232B11F44F5F5F4F6DE6DA
:100A900071E0869F9001879F300D969F300D112445
:100AA0002150310903969695879596958795280F3D
:100AB000391F240F351FC9010895FC0120812053DF
:100AC0002A3008F020E0FC0181818053FAE02F9F5A
:100AD000800D11240895CF92DF92EF92FF92CF9371
:100AE000DF93EC01405853446D467843ECE3CE2E3F
:100AF000D12CE12CF12CCB01BA01A70196010E9467
:100B0000DC086D83CA01B901A70196010E94DC08C7
:100B10006C83CA01B90128E130E040E050E00E9456
:100B2000DC086B83188243E95EEFE8818E2F8370C7
:100B3000A1E009F0A0E08A2F90E0BC0163597E4F4C
:100B40002617370740F0BA01681B790B260F371FAD
:100B5000EF5FE883EACF81E089838981E82FF0E0C5
:100B6000E959FF4FE491AA2319F0823009F4EF5FAD
:100B7000F0E02E173F0720F02E1B3F0B8F5FECCFCE
:100B80002F5F2A83DF91CF91FF90EF90DF90CF907E
:100B90000895EF92FF920F931F93CF93DF93EC0191
:100BA0008B017A01CB0109960E945D058883F801CB
:100BB00080818A3499F038F48434A9F18634D9F0EC
:100BC000813499F51AC08E3461F118F48D3469F5C9
:100BD0001CC08F3421F1833541F51FC0F80181819C
:100BE000813639F082818E3611F486E01DC087E0AF
:100BF0001BC081E019C082E017C0F80182818237F2
:100C000011F484E011C088E00FC0F80182818237BE
:100C100011F483E009C085E007C089E005C08AE0DF
:100C200003C08BE001C08CE08983C80104960E9458
:100C30005D058A83C7010E945D058B83C70103960A
:100C40000E945D058C83C70106960E945D058D8319
:100C5000DF91CF911F910F91FF90EF9008950F9327
:100C60001F93CF93DF93EC014A816981888190E0E3
:100C70000E942A059C01A8E1B0E00E94C5089B01E2
:100C8000AC018B81280F311D411D511DACE3B0E03B
:100C90000E94D1089B01AC018C81280F311D411DA0
:100CA000511D0E94D1088B019C018D81080F111DDF
:100CB000211D311D00581C4B2249374CB801C90178
:100CC000DF91CF911F910F910895CF92DF92EF9214
:100CD000FF920E942F066B017C010E94BC0128EE4E
:100CE00033E040E050E00E94DC08C21AD30AE40A74
:100CF000F50AC0920E02D0920F02E0921002F0921A
:100D00001102FF90EF90DF90CF900895CF92DF9285
:100D1000EF92FF92CF93DF93CDB7DEB72C970FB64C
:100D2000F894DEBF0FBECDBFC0900E02D0900F0270
:100D3000E0901002F09011020E94BC0128EE33E016
:100D400040E050E00E94DC082C0D3D1D4E1D5F1D53
:100D5000BA01A901CE0107960E946B0586E0FE014B
:100D60003796DE01119601900D928A95E1F729815F
:100D70003A814B815C816D817E8180E090E02C9690
:100D80000FB6F894DEBF0FBECDBFDF91CF91FF90BD
:100D9000EF90DF90CF9008952091410230E0809154
:100DA0004202281B3109C9010895809142029091A5
:100DB0004102891750F4E82FF0E0ED5BFD4F2081F0
:100DC00030E08F5F8093420202C02FEF3FEFC901F6
:100DD0000895E091420280914102E81730F4F0E07A
:100DE000ED5BFD4F208130E002C02FEF3FEFC901E6
:100DF00008950895CF92DF92EF92FF920F931F9381
:100E0000CF93DF937C01CB018A0120911E02222324
:100E100091F0EB016B01C40ED51E09C06991D70199
:100E2000ED91FC910190F081E02DC7010995CC1561
:100E3000DD05A1F703C0642F0E946C07C801DF9194
:100E4000CF911F910F91FF90EF90DF90CF90089579
:100E5000CF93DF931F92CDB7DEB7698320911E0237
:100E60002223D1F020911F02203240F021E030E017
:100E7000FC013383228320E030E015C08091200202
:100E8000E82FF0E0EF5DFD4F998190838F5F8093B5
:100E9000200280931F0205C061E0CE0101960E94EE
:100EA0006C0721E030E0C9010F90DF91CF910895E8
:100EB000FC011382128248EE53E060E070E044834C
:100EC00055836683778381E591E0918380830895DC
:100ED00082E192E00C945807613298F420916C0200
:100EE000243089F460936502FC018DE892E0DC0116
:100EF00002C021912D932A2F281B2617D0F380E0C2
:100F0000089581E0089582E0089585ED8093BC0006
:100F10008091BC0084FDFCCF10926C02089585EC9A
:100F20008093BC0010926C0208951F920F920FB62E
:100F30000F9211242F933F934F935F936F937F935F
:100F40008F939F93AF93BF93EF93FF938091B900DB
:100F5000887F803609F49FC058F5883209F45BC059
:100F600090F4803109F452C038F4882309F4F8C0B1
:100F7000883009F0F9C04AC0883109F44CC0803289
:100F800009F0F2C05CC0803409F46BC038F48033DF
:100F900009F455C0883309F0E7C054C0803509F41E
:100FA00054C0883509F462C0883409F0DDC0DAC065
:100FB000883909F4CBC0A8F4883709F46CC038F438
:100FC000883609F468C0803709F0CEC064C088381C
:100FD00009F4BCC0803909F464C0803809F0C4C089
:100FE00060C0803B09F48AC038F4803A09F46BC0D1
:100FF000883A09F0B9C082C0803C09F4ABC0883C93
:1010000009F4A8C0883B09F0AFC08DC080916B0285
:101010008093BB0012C0909168028091670298177C
:1010200088F580916802E82FF0E0E359FD4F908148
:101030009093BB008F5F8093680285EC88C080939B
:10104000630290C08093630256C0809168029091C1
:10105000BB00E82FF0E0E359FD4F90838F5F809352
:10106000680290916802809167026DC08091680269
:101070009091BB00E82FF0E0E359FD4F90838F5F24
:101080008093680280916A0281116CC081E0809334
:10109000690284EA60C083E080936C02109264026B
:1010A000CCCF80916402803208F050C080916402FD
:1010B0009091BB00E82FF0E0EF54FD4F90838F5FDD
:1010C00080936402BACF80916402803230F4E09160
:1010D0006402F0E0EF54FD4F10820E94850760919A
:1010E0006402E091AD02F091AE0270E081EB92E01B
:1010F0000995109264020E948F0736C084E08093A5
:101100006C021092660210926502E091AF02F091BB
:10111000B002099580916502811105C081E080933C
:10112000650210928D0280916602E82FF0E0E3578D
:10113000FD4F90819093BB008F5F809366029091EA
:10114000660280916502981708F477CF85E880934E
:10115000BC000AC085EC8093BC0010926C0204C0F5
:10116000109263020E948507FF91EF91BF91AF91AA
:101170009F918F917F916F915F914F913F912F91AF
:101180000F900FBE0F901F901895A29FB001B39FB4
:10119000C001A39F01D0B29F700D811D1124911D2C
:1011A00008950E94C508A59F900DB49F900DA49F1F
:1011B000800D911D11240895A1E21A2EAA1BBB1BBC
:1011C000FD010DC0AA1FBB1FEE1FFF1FA217B30713
:1011D000E407F50720F0A21BB30BE40BF50B661F29
:1011E000771F881F991F1A9469F7609570958095ED
:1011F00090959B01AC01BD01CF010895EE0FFF1F3B
:0C1200000590F491E02D0994F894FFCFC4
:10120C0032323A33393A3337004D61722020322072
:10121C003230313300207365636F6E6473207369F1
:10122C006E636520313937303A2000206E6F77209D
:10123C002B203764202B203330733A200000000021
:10124C0000BE024904590288026C02AC0200000084
:0E125C00002807FA06CC06D506E906F90600BA
:00000001FF
