:100000000C945F000C9487000C9487000C9487007C
:100010000C9487000C9487000C9487000C94870044
:100020000C9487000C9487000C9487000C94870034
:100030000C9487000C9487000C9487000C94870024
:100040000C94CF010C9487000C9440030C947C0317
:100050000C9487000C9487000C9487000C94870004
:100060000C9430070C9487001F1C1F1E1F1E1F1F9F
:100070001E1F1E1F000000070002010000030406EF
:100080000000000000000000010204081020408071
:1000900001020408102001020408102004040404D2
:1000A0000404040402020202020203030303030322
:1000B00000000000250028002B0037044D06112405
:1000C0001FBECFEFD8E0DEBFCDBF11E0A0E0B1E0B2
:1000D000E8E2F7E102C005900D92AE37B107D9F71B
:1000E00012E0AEE7B1E001C01D92A13FB107E1F718
:1000F00010E0CEEBD0E004C02297FE010E948E0BF0
:10010000CA3BD107C9F70E9487040C94920B0C9448
:100110000000CF93DF9300D000D000D0CDB7DEB782
:1001200040E051EE60E070E088E891E00E94B703A3
:100130008FE292E00E9411060E94A2098EE791E0F0
:100140000E94A409811112C060E071E088E891E08A
:100150000E94EB0444E151E06DE171E0CE010196B3
:100160000E940609CE0101960E94D00926960FB67C
:10017000F894DEBF0FBECDBFDF91CF910895CF922F
:10018000DF92EF92FF92CF93DF93CDB7DEB7629706
:100190000FB6F894DEBF0FBECDBF0E944B0A2D876D
:1001A0003E874F87588B698B7A8B86E0FE013D96A0
:1001B000DE01179601900D928A95E1F76F8170E04C
:1001C0006053784F4AE050E088E891E00E9468056B
:1001D0006FE288E891E00E94CE044AE050E0688532
:1001E00088E891E00E946E056FE288E891E00E9445
:1001F000CE044AE050E0698588E891E00E946E05EF
:1002000060E288E891E00E94CE044AE050E06A850E
:1002100088E891E00E946E056AE388E891E00E9418
:10022000CE044AE050E06B8588E891E00E946E05BC
:100230006AE388E891E00E94CE044AE050E06C85D1
:1002400088E891E00E946E0588E891E00E94D5045C
:1002500069E271E088E891E00E94CC04CE01079643
:100260000E946C09AB01BC012AE030E088E891E013
:100270000E945B0565E471E088E891E00E94CC048F
:10028000CE0107960E946C0920E831E541E050E07C
:100290000E946A0B69017A012AE030E0B701A601E9
:1002A00088E891E00E945B056AE471E088E891E0EB
:1002B0000E94EB04CE0107960E946C09AB01BC01C1
:1002C0004256554C664F7F4FCE0101960E94A808BA
:1002D0006CE471E088E891E00E94CC04698170E0F0
:1002E0006053784F4AE050E088E891E00E9468054A
:1002F0006FE288E891E00E94CE044AE050E06A8113
:1003000088E891E00E946E056FE288E891E00E9423
:10031000CE044AE050E06B8188E891E00E946E05CF
:1003200060E288E891E00E94CE044AE050E06C81EF
:1003300088E891E00E946E056AE388E891E00E94F7
:10034000CE044AE050E06D8188E891E00E946E059D
:100350006AE388E891E00E94CE044AE050E06E81B2
:1003600088E891E00E946E0588E891E00E94D5043B
:1003700088E891E00E94D50468EB7BE080E090E0A3
:100380000E94430262960FB6F894DEBF0FBECDBF47
:10039000DF91CF91FF90EF90DF90CF9008951F9263
:1003A0000F920FB60F9211242F933F938F939F9329
:1003B000AF93BF9380917F0190918001A0918101C3
:1003C000B091820130918701232F2D5F2D3720F4CA
:1003D0000196A11DB11D05C0232F2A570296A11D0C
:1003E000B11D2093870180937F0190938001A0939A
:1003F0008101B09382018091830190918401A09149
:100400008501B09186010196A11DB11D80938301E4
:1004100090938401A0938501B0938601BF91AF9121
:100420009F918F913F912F910F900FBE0F901F9032
:1004300018950F931F939FB7F89400918301109123
:100440008401209185013091860186B5A89B06C064
:100450008F3F21F00F5F1F4F2F4F3F4F9FBF322F16
:10046000212F102F0027080F111D211D311D42E0E3
:10047000000F111F221F331F4A95D1F7B801C90180
:100480001F910F910895CF92DF92EF92FF92CF9339
:10049000DF936B017C010E941902EB010EC00E94E8
:1004A00019026C1B7D0B683E734038F081E0C81A5E
:1004B000D108E108F108C851DC4FC114D104E104AE
:1004C000F10469F7DF91CF91FF90EF90DF90CF902B
:1004D0000895789484B5826084BD84B5816084BDBC
:1004E00085B5826085BD85B5816085BDEEE6F0E0AD
:1004F000808181608083E1E8F0E010828081826009
:100500008083808181608083E0E8F0E08081816089
:100510008083E1EBF0E0808184608083E0EBF0E0B9
:10052000808181608083EAE7F0E08081846080835D
:100530008081826080838081816080838081806807
:1005400080831092C1000895FC0184859585FC018B
:10055000E05CFF4F20813181FC01EE5BFF4F808129
:100560009181281B390B2F733327C9010895FC0192
:1005700084859585FC01E05CFF4F40815181FC0141
:10058000EE5BFF4F208131814217530741F001900C
:10059000F081E02DE80FF91F208130E002C02FEF3D
:1005A0003FEFC9010895FC0184859585FC01E05C5D
:1005B000FF4F40815181FC01EE5BFF4F2081318173
:1005C0004217530781F0A081B181A80FB91F8C9108
:1005D000208131812F5F3F4F2F7333273183208359
:1005E000282F30E002C02FEF3FEFC9010895FC0132
:1005F00086859785FC01E05CFF4FDC01AE5BBF4F59
:10060000408151812D913C91119742175307C1F7B9
:100610000895CF93DF93FC0186859785DC01A05C6C
:10062000BF4F2D913C9111972F5F3F4F2F73332771
:10063000EC01CE5BDF4F4881598124173507D9F390
:100640000D90BC91A02DA80FB91F6C93A685B785FE
:10065000A05CBF4F11963C932E93A689B7892C912D
:1006600081E090E0058C02C0880F991F0A94E2F7A0
:10067000282B2C9381E090E0DF91CF91089508958D
:100680001F920F920FB60F9211242F933F934F9307
:100690008F939F93EF93FF934091C60080912B021D
:1006A00090912C0201968F73992720912D02309101
:1006B0002E028217930759F0E0912B02F0912C0241
:1006C000E551FE4F408390932C0280932B02FF91C3
:1006D000EF919F918F914F913F912F910F900FBE6E
:1006E0000F901F90189588E891E00E94A402892B32
:1006F00011F00C943F0308951F920F920FB60F92C2
:1007000011242F933F938F939F93EF93FF93209107
:10071000E7013091E8018091E9019091EA01281701
:10072000390731F48091C1008F7D8093C10014C0DE
:10073000E091E901F091EA01E955FE4F20818091B5
:10074000E9019091EA0101968F7399279093EA014C
:100750008093E9012093C600FF91EF919F918F91C3
:100760003F912F910F900FBE0F901F901895CF9231
:10077000DF92EF92FF92CF93DF93EC016A017B014E
:10078000411581EE580761057105F9F0EC89FD8985
:1007900081E090E00E8C02C0880F991F0A94E2F766
:1007A000808360E079E08DE390E0A70196010E94EC
:1007B0006A0B2150310941095109569547953795E2
:1007C0002795211580E1380798F0EC89FD89108282
:1007D00060E874E88EE190E0A70196010E946A0B40
:1007E000215031094109510956954795379527956B
:1007F000E889F9893083EA89FB892083EE89FF89BA
:10080000408181E090E09C010A8C02C0220F331FDE
:100810000A94E2F7422B4083EE89FF8940819C01D4
:100820000B8C02C0220F331F0A94E2F7422B408345
:10083000EE89FF8940819C010C8C02C0220F331F7E
:100840000A94E2F7422B4083EE89FF8920810D8CC8
:1008500002C0880F991F0A94E2F780958223808353
:10086000DF91CF91FF90EF90DF90CF90089510929D
:100870008B0110928A0188EE93E0A0E0B0E08093B3
:100880008C0190938D01A0938E01B0938F0182E62D
:1008900091E090938901809388018BEE91E0909391
:1008A00095018093940187EA91E09093970180935A
:1008B000960185EC90E0909399018093980184ECE7
:1008C00090E090939B0180939A0180EC90E090934C
:1008D0009D0180939C0181EC90E090939F01809317
:1008E0009E0186EC90E09093A1018093A00184E0AA
:1008F0008093A20183E08093A30187E08093A40109
:1009000085E08093A50181E08093A60108950E946F
:1009100069020E948900C3E7D3E00E94BF002097CC
:10092000E1F30E947303F9CFCF92DF92EF92FF922F
:100930000F931F93CF93DF936C01EB017A01E60EC7
:10094000F71E00E010E00BC06991D601ED91FC911B
:100950000190F081E02DC6010995080F191FCE15F1
:10096000DF0591F7C801DF91CF911F910F91FF90A3
:10097000EF90DF90CF900895DB010D900020E9F714
:10098000AD0141505109461B570BDC01ED91FC9123
:100990000280F381E02D09940C94BC04DC01ED91FC
:1009A000FC910190F081E02D09940F931F93CF9358
:1009B000DF93EC016DE00E94CE048C016AE0CE0171
:1009C0000E94CE049C01200F311FC901DF91CF91FD
:1009D0001F910F9108950F931F93CF93DF93EC0115
:1009E0000E94BC048C01CE010E94D5049801280FFE
:1009F000391FC901DF91CF911F910F9108954F9237
:100A00005F926F927F929F92AF92BF92CF92DF924E
:100A1000EF92FF920F931F93CF93DF93CDB7DEB783
:100A2000A1970FB6F894DEBF0FBECDBF5C016A017F
:100A30007B01922E19A281E0821710F08AE0982E95
:100A40008E010F5D1F4F492C512C612C712CC70159
:100A5000B601A30192010E946A0B8C2D929E80190F
:100A60001124015011098A3010F4805D01C0895CA5
:100A7000F801808369017A01C114D104E104F10411
:100A800031F7B801C5010E94BC04A1960FB6F894D5
:100A9000DEBF0FBECDBFDF91CF911F910F91FF90B1
:100AA000EF90DF90CF90BF90AF909F907F906F902E
:100AB0005F904F9008952115310541F4DC01ED91CF
:100AC000FC910190F081E02D642F09940C94FF04B7
:100AD0009A01AB0160E070E00C945B059A01462F2F
:100AE00050E060E070E00C945B0520915F0230E024
:100AF00080916002281B3109C9010895809160022C
:100B000090915F02891750F4E82FF0E0EF59FD4F04
:100B1000208130E08F5F8093600202C02FEF3FEFB3
:100B2000C9010895E091600280915F02E81730F4F6
:100B3000F0E0EF59FD4F208130E002C02FEF3FEF92
:100B4000C90108950895CF92DF92EF92FF920F931B
:100B50001F93CF93DF937C01CB018A0120913B024D
:100B6000222391F0EB016B01C40ED51E09C06991DF
:100B7000D701ED91FC910190F081E02DC70109951D
:100B8000CC15DD05A1F703C0642F0E940707C8013B
:100B9000DF91CF911F910F91FF90EF90DF90CF9059
:100BA0000895CF93DF931F92CDB7DEB7698320916D
:100BB0003B022223D1F020913C02203240F021E080
:100BC00030E0FC013383228320E030E015C08091C7
:100BD0003D02E82FF0E0E25CFD4F998190838F5F4A
:100BE00080933D0280933C0205C061E0CE010196F6
:100BF0000E94070721E030E0C9010F90DF91CF91FB
:100C00000895FC011382128248EE53E060E070E028
:100C1000448355836683778382E791E09183808361
:100C200008951092600210925F0210923D0210929D
:100C30003C020C945106862F413208F040E261E6F6
:100C400072E00E946F061092600280935F02089526
:100C500021E00C941B0681E080933B0260935E02CE
:100C600010923D0210923C0208950C942B060F93B3
:100C7000062F21E040913C026EE372E080915E021B
:100C80000E94B40610923D0210923C0210923B0268
:100C90000F91089561E00C9437068FE292E00C9476
:100CA000010610928A0281E08093880210928702E6
:100CB00061E082E10E94100B61E083E10E94100B71
:100CC000E9EBF0E080818E7F808380818D7F80835F
:100CD00088E48093B80085E48093BC000895413295
:100CE00008F03FC090918A029111FCCF91E090935F
:100CF0008A02209388022FEF2093810210928602AD
:100D0000242F21502093850290938902909189028B
:100D1000880F892B8093890280918702813041F46A
:100D200010928702809189028093BB0085EC01C0FC
:100D300085EE8093BC0080918A028130E1F380913E
:100D40008602841710F4409186022BE832E0FB0102
:100D5000D90102C08D9181938A2F821B8417D0F311
:100D600001C040E0842F08950F93413208F046C03F
:100D700090918A029111FCCF92E090938A020093A5
:100D800088029FEF90938102109286024093850221
:100D9000FB016BE872E0DB0102C091919D939A2FF9
:100DA000961B9417D0F31092890290918902880FB4
:100DB000892B8093890280918702813041F41092BF
:100DC0008702809189028093BB0085EC01C085EE8B
:100DD0008093BC00222321F080918A028230E1F3CB
:100DE000809181028F3F61F080918102803251F0C9
:100DF00080918102803341F483E007C081E005C027
:100E000080E003C082E001C084E00F910895613268
:100E100098F420918A02243089F460938302FC01C3
:100E20008BEA92E0DC0102C021912D932A2F281B2E
:100E30002617D0F380E0089581E0089582E00895B8
:100E400085ED8093BC008091BC0084FDFCCF1092A6
:100E50008A02089585EC8093BC0010928A0208955E
:100E60001F920F920FB60F9211242F933F934F931F
:100E70005F936F937F938F939F93AF93BF93EF9302
:100E8000FF938091B900887F803609F49FC058F5A0
:100E9000883209F45BC090F4803109F452C038F410
:100EA000882309F4F8C0883009F0F9C04AC08831B5
:100EB00009F44CC0803209F0F2C05CC0803409F4FF
:100EC0006BC038F4803309F455C0883309F0E7C0AB
:100ED00054C0803509F454C0883509F462C08834A0
:100EE00009F0DDC0DAC0883909F4CBC0A8F488372E
:100EF00009F46CC038F4883609F468C0803709F00A
:100F0000CEC064C0883809F4BCC0803909F464C01C
:100F1000803809F0C4C060C0803B09F48AC038F44E
:100F2000803A09F46BC0883A09F0B9C082C0803CAD
:100F300009F4ABC0883C09F4A8C0883B09F0AFC0F5
:100F40008DC0809189028093BB0012C0909186026F
:100F500080918502981788F580918602E82FF0E04D
:100F6000E557FD4F90819093BB008F5F8093860281
:100F700085EC88C08093810290C08093810256C026
:100F8000809186029091BB00E82FF0E0E557FD4F7D
:100F900090838F5F80938602909186028091850274
:100FA0006DC0809186029091BB00E82FF0E0E5577C
:100FB000FD4F90838F5F809386028091880281111C
:100FC0006CC081E08093870284EA60C083E08093F4
:100FD0008A0210928202CCCF80918202803208F085
:100FE00050C0809182029091BB00E82FF0E0E15365
:100FF000FD4F90838F5F80938202BACF80918202EF
:10100000803230F4E0918202F0E0E153FD4F108233
:101010000E94200760918202E091CB02F091CC0205
:1010200070E08FEC92E00995109282020E942A07EC
:1010300036C084E080938A02109284021092830268
:10104000E091CD02F091CE02099580918302811149
:1010500005C081E0809383021092AB0280918402EC
:10106000E82FF0E0E555FD4F90819093BB008F5F36
:10107000809384029091840280918302981708F4EF
:1010800077CF85E88093BC000AC085EC8093BC00D4
:1010900010928A0204C0109281020E942007FF91E0
:1010A000EF91BF91AF919F918F917F916F915F91E0
:1010B0004F913F912F910F900FBE0F901F90189559
:1010C000803D27E0920710F0805D974050E0E8E611
:1010D000F0E021E02E1B04C03491430F511D3196E6
:1010E000322F3E0F3617C0F3633038F09C01237067
:1010F0003327232B11F44F5F5F4F6DE671E0869F1E
:101100009001879F300D969F300D11242150310999
:1011100003969695879596958795280F391F240FE6
:10112000351FC9010895FC01208120532A3008F0A1
:1011300020E0FC0181818053FAE02F9F800D112473
:101140000895DC01ED91FC910190F081E02D09946E
:10115000CF92DF92EF92FF92CF93DF93EC01405852
:1011600053446D467843ECE3CE2ED12CE12CF12C88
:10117000CB01BA01A70196010E946A0B6D83CA01D7
:10118000B901A70196010E946A0B6C83CA01B901DB
:1011900028E130E040E050E00E946A0B6B83188247
:1011A00043E95EEFE8818E2F8370A1E009F0A0E0B3
:1011B0008A2F90E0BC0163597E4F2617370740F015
:1011C000BA01681B790B260F371FEF5FE883EACF60
:1011D00081E089838981E82FF0E0E959FF4FE491AC
:1011E000AA2319F0823009F4EF5FF0E02E173F07D1
:1011F00020F02E1B3F0B8F5FECCF2F5F2A83DF91F8
:10120000CF91FF90EF90DF90CF900895EF92FF92F3
:101210000F931F93CF93DF93EC018B017A01CB01E6
:1012200009960E9493088883F80180818A3499F096
:1012300038F48434A9F18634D9F0813499F51AC090
:101240008E3461F118F48D3469F51CC08F3421F1AE
:10125000833541F51FC0F8018181813639F08281E3
:101260008E3611F486E01DC087E01BC081E019C0F6
:1012700082E017C0F8018281823711F484E011C046
:1012800088E00FC0F8018281823711F483E009C041
:1012900085E007C089E005C08AE003C08BE001C09B
:1012A0008CE08983C80104960E9493088A83C70151
:1012B0000E9493088B83C70103960E9493088C8336
:1012C000C70106960E9493088D83DF91CF911F91ED
:1012D0000F91FF90EF9008950F931F93CF93DF939B
:1012E000EC014A816981888190E00E9460089C013C
:1012F000A8E1B0E00E94470B9B01AC018B81280F55
:10130000311D411D511DACE3B0E00E94530B9B0108
:10131000AC018C81280F311D411D511D0E94530BC2
:101320008B019C018D81080F111D211D311D00585D
:101330001C4B2249374CB801C901DF91CF911F9155
:101340000F91089581E00895CF93DF9368E670E0F0
:101350008FE292E00E9435066091EF027091F002F8
:101360008FE292E00E94A1088FE292E00E944A067A
:1013700041E050E068E670E08FE292E00E942806CB
:101380008FE292E00E947E0587FB882780F9C82FB4
:1013900080E0D82F81E0C8278C2FDF91CF9108956E
:1013A0001F93CF93DF93EC0168E670E08FE292E049
:1013B0000E9435066091EF027091F0028FE292E098
:1013C0000E94A1082D811AE0822F612F0E945E0BDE
:1013D000682F660F680F660F620F8FE292E00E941F
:1013E000D1052C81822F612F0E945E0B682F660F22
:1013F000680F660F620F8FE292E00E94D1052B8189
:10140000822F612F0E945E0B682F660F680F660F98
:10141000620F8FE292E00E94D10560E08FE292E0DD
:101420000E94D1052A81822F612F0E945E0B682FB6
:10143000660F680F660F620F8FE292E00E94D1057F
:101440002981822F612F0E945E0B682F660F680F23
:10145000660F620F8FE292E00E94D1052881822FF1
:10146000612F0E945E0B682F660F680F660F620F78
:101470008FE292E00E94D1056091EF027091F0023C
:101480008FE292E00E94A1088FE292E0DF91CF917B
:101490001F910C944A061F93CF93DF93CDB7DEB70D
:1014A0002B970FB6F894DEBF0FBECDBF68E670E095
:1014B0008FE292E00E9435066091EF027091F00297
:1014C0008FE292E00E94A1088FE292E00E944A0619
:1014D00047E050E068E670E08FE292E00E94280664
:1014E0008FE292E00E947E058F7799279C01F4E0BD
:1014F00035952795FA95E1F71AEF782F129F700D21
:1015000011248FE292E07B870E947E059C013327A5
:10151000A4E035952795AA95E1F7682F129F600DF5
:1015200011248FE292E06A870E947E059C01332796
:10153000B4E035952795BA95E1F7582F129F500DD5
:1015400011248FE292E059870E947E058FE292E09B
:101550000E947E059C01332794E0359527959A9546
:10156000E1F7482F129F400D11248FE292E0488747
:101570000E947E059C01332744E0359527954A95C6
:10158000E1F7382F129F300D11248FE292E03F8354
:101590000E947E05FC01FF2754E0F595E7955A95DA
:1015A000E1F7282F1E9F200D11243F814885598582
:1015B0006A857B8580E090E02B960FB6F894DEBFBD
:1015C0000FBECDBFDF91CF911F910895833069F099
:1015D00028F48130A1F0823011F514C08630B1F0CA
:1015E0008730C1F08430D9F404C0809180008F77B7
:1015F00003C0809180008F7D80938000089584B522
:101600008F7702C084B58F7D84BD08958091B0002E
:101610008F7703C08091B0008F7D8093B0000895D4
:101620000F931F93CF93DF931F92CDB7DEB7282F71
:1016300030E0F901EC58FF4F8491F901E857FF4F72
:101640001491F901E456FF4F04910023D1F088234F
:1016500021F069830E94E60A6981E02FF0E0EE0F35
:10166000FF1FE055FF4F85919491DC019FB7F894DF
:101670008C91611103C01095812301C0812B8C9343
:101680009FBF0F90DF91CF911F910F910895A29F5F
:10169000B001B39FC001A39F01D0B29F700D811D07
:1016A0001124911D08950E94470BA59F900DB49F92
:1016B000900DA49F800D911D11240895991B79E030
:1016C00004C0991F961708F0961B881F7A95C9F7D2
:1016D00080950895A1E21A2EAA1BBB1BFD010DC027
:1016E000AA1FBB1FEE1FFF1FA217B307E407F507D2
:1016F00020F0A21BB30BE40BF50B661F771F881FAE
:10170000991F1A9469F760957095809590959B0143
:10171000AC01BD01CF010895EE0FFF1F0590F491BC
:08172000E02D0994F894FFCFBD
:10172800525443206973204E4F542072756E6E696F
:101738006E67210031313A34363A3237004D6172E2
:101748002020332032303133002073696E636520E6
:101758006D69646E6967687420312F312F313937AC
:1017680030203D200073203D20006400206E6F77FC
:10177800202B203764202B203330733A20000000C0
:10178800000009039404A402D302B702F702000080
:0E1798000000D105A30575057E059205A2058A
:00000001FF
