:100000000C9466000C948E000C948E000C948E0060
:100010000C948E000C948E000C948E000C948E0028
:100020000C948E000C948E000C948E000C948E0018
:100030000C948E000C948E000C948E000C948E0008
:100040000C94E0010C948E000C9491040C94CD045B
:100050000C948E000C948E000C948E000C948E00E8
:100060000C946D150C948E00000000070002010036
:100070000003040600000000000000000102040864
:100080001020408001020408102001020408102002
:10009000040404040404040402020202020203032E
:1000A00003030303000000002300260029000000D2
:1000B0000000250028002B0000000000240027007D
:1000C0002A009501880536088A14BB0111241FBE39
:1000D000CFEFD8E0DEBFCDBF11E0A0E0B1E0E0E1BE
:1000E000F1E302C005900D92A236B107D9F715E0F1
:1000F000A2E6B1E001C01D92A639B107E1F710E018
:10010000CAECD0E004C02297FE010E947718C23CDE
:10011000D107C9F70E94D8050C947B180C940000F5
:100120000F931F93CF93DF9300D000D000D0CDB7B3
:10013000DEB740E051EE60E070E08BED91E00E94B0
:10014000080584ED94E00E944E140E94181743E1C4
:1001500051E06CE171E0CE0101960E94B216CE0131
:1001600001960E941A1768EE73E080E090E00E940A
:10017000660204E011E061E0F80180810E94F10272
:1001800060E0809100010E94F10261E0F80180814D
:100190000E94290302E011E061E0F80180810E94E1
:1001A000F10261E0F80180810E94290361E0809101
:1001B0000C010E94F1026AE082E892E00E940808C5
:1001C00026960FB6F894DEBF0FBECDBFDF91CF915C
:1001D0001F910F910895CF93DF93CDB7DEB72C9782
:1001E0000FB6F894DEBF0FBECDBF0E9495172F83C8
:1001F000388749875A876B877C8786E0FE01379668
:10020000DE01119601900D928A95E1F780916E01C1
:100210000E94BF0190936D0180936C0180910A014F
:100220000E94BF0190936B0180936A018091060147
:100230000E94BF0190936901809368018091080139
:100240000E94BF01909367018093660120E432E42D
:100250004FE050E061E0809100010E9460036093F4
:1002600062017093630180936401909365016091D2
:100270006C0170916D014AE050E08BED91E00E94BD
:10028000040768E271E08BED91E00E941D06409149
:1002900062015091630160916401709165012AE0EF
:1002A00030E08BED91E00E94AC0668E271E08BEDEE
:1002B00091E00E941D0668E271E08BED91E00E94E2
:1002C0001D0660916801709169014AE050E08BED74
:1002D00091E00E94040768E271E08BED91E00E94DA
:1002E0001D0660916A0170916B014AE050E08BED50
:1002F00091E00E94040768E271E08BED91E00E94BA
:100300003C0668E776EE80E090E00E94660268EEC8
:1003100073E080E090E02C960FB6F894DEBF0FBE3D
:10032000CDBFDF91CF910C9466021092CB01109259
:10033000CC011092CF011092D10182E090E0A0E0B8
:10034000B0E08093A8019093A901A093AA01B09373
:10035000AB011092BF0110928E0110928D018EE4BC
:1003600091E090938C0180938B011092900180E733
:1003700091E00C94920780E791E00C94A5078E30F1
:1003800008F08E50877020910E0140E4249F900168
:100390001124822B80937C0080917A00806480936A
:1003A0007A0080917A0086FDFCCF20917800309110
:1003B0007900932F80E0AC01422B9A01C901089586
:1003C0001F920F920FB60F9211242F933F938F938A
:1003D0009F93AF93BF938091D2019091D301A0914D
:1003E000D401B091D5013091DA01232F2D5F2D3743
:1003F00020F40196A11DB11D05C0232F2A57029696
:10040000A11DB11D2093DA018093D2019093D301F5
:10041000A093D401B093D5018091D6019091D701DA
:10042000A091D801B091D9010196A11DB11D809371
:10043000D6019093D701A093D801B093D901BF9171
:10044000AF919F918F913F912F910F900FBE0F9081
:100450001F9018950F931F938FB7F8940091D201B6
:100460001091D3012091D4013091D5018FBFB801F3
:10047000C9011F910F9108950F931F939FB7F8948F
:100480000091D6011091D7012091D8013091D90166
:1004900086B5A89B06C08F3F21F00F5F1F4F2F4FDF
:1004A0003F4F9FBF322F212F102F0027080F111D04
:1004B000211D311D42E0000F111F221F331F4A95DD
:1004C000D1F7B801C9011F910F910895CF92DF9222
:1004D000EF92FF92CF93DF936B017C010E943C026D
:1004E000EB010EC00E943C026C1B7D0B683E73400A
:1004F00038F081E0C81AD108E108F108C851DC4F92
:10050000C114D104E104F10469F7DF91CF91FF90A8
:10051000EF90DF90CF900895789484B5826084BD89
:1005200084B5816084BD85B5826085BD85B58160F7
:1005300085BDEEE6F0E0808181608083E1E8F0E057
:100540001082808182608083808181608083E0E886
:10055000F0E0808181608083E1EBF0E08081846065
:100560008083E0EBF0E0808181608083EAE7F0E067
:1005700080818460808380818260808380818160CB
:1005800080838081806880831092C10008958330C9
:1005900069F028F48130A1F0823011F514C0863062
:1005A000B1F08730C1F08430D9F404C0809180006C
:1005B0008F7703C0809180008F7D809380000895A5
:1005C00084B58F7702C084B58F7D84BD08958091F6
:1005D000B0008F7703C08091B0008F7D8093B00012
:1005E0000895CF93DF9390E0FC01E458FF4F4491CE
:1005F000FC01E057FF4F8491882341F190E0880F80
:10060000991FFC01E854FF4F25913491D90182557F
:100610009F4FFC0185919491C82FD92F9FB7F894D3
:100620008C91611106C0409584238C93888184232A
:1006300008C0623041F4242F209582238C93888156
:10064000842B888302C0842B8C939FBFDF91CF9132
:1006500008950F931F93CF93DF931F92CDB7DEB70B
:10066000282F30E0F901E859FF4F8491F901E4584F
:10067000FF4F1491F901E057FF4F04910023D1F08F
:10068000882321F069830E94C7026981E02FF0E08E
:10069000EE0FFF1FE255FF4F85919491DC019FB74C
:1006A000F8948C91611103C01095812301C0812BB6
:1006B0008C939FBF0F90DF91CF911F910F91089561
:1006C0008F929F92AF92BF92CF92DF92EF92FF9262
:1006D0000F931F93CF93DF9390E0FC01E458FF4FFB
:1006E000D491FC01E057FF4F7491611102C0C0E04A
:1006F00001C0CD2FDA01C901BF70672F70E0660F0E
:10070000771F6C557F4F812C912C5401FB01059173
:10071000149110C0C12CD12C7601C394C80CD91CE3
:10072000EA1CFB1C88169906AA06BB0609F44BC0F6
:1007300046015701F801E081ED23EC1759F310C091
:10074000C12CD12C7601C394C80CD91CEA1CFB1C0B
:1007500088169906AA06BB06B1F14601570103C0E7
:10076000FB0105911491F801E081ED23EC13E8CF32
:1007700088199909AA09BB0920E030E0A901FB0109
:100780006591749109C0281739074A075B07D9F0AA
:100790002F5F3F4F4F4F5F4FFB01E081ED23EC1781
:1007A00091F3A5E1B0E00E943C188B019C01005F31
:1007B0001F4F2F4F3F4F84E036952795179507958C
:1007C0008A95D1F703C000E010E09801B801C90193
:1007D000DF91CF911F910F91FF90EF90DF90CF901D
:1007E000BF90AF909F908F900895FC018485958570
:1007F000FC01E05CFF4F20813181FC01EE5BFF4F8B
:1008000080819181281B390B2F733327C9010895EB
:10081000FC0184859585FC01E05CFF4F408151819E
:10082000FC01EE5BFF4F208131814217530741F0FD
:100830000190F081E02DE80FF91F208130E002C027
:100840002FEF3FEFC9010895FC0184859585FC01D8
:10085000E05CFF4F40815181FC01EE5BFF4F208146
:1008600031814217530781F0A081B181A80FB91FD0
:100870008C91208131812F5F3F4F2F73332731833C
:100880002083282F30E002C02FEF3FEFC9010895E9
:10089000FC0186859785FC01E05CFF4FDC01AE5BC7
:1008A000BF4F408151812D913C91119742175307C1
:1008B000C1F70895CF93DF93FC0186859785DC010E
:1008C000A05CBF4F2D913C9111972F5F3F4F2F732D
:1008D0003327EC01CE5BDF4F488159812417350760
:1008E000D9F30D90BC91A02DA80FB91F6C93A685CC
:1008F000B785A05CBF4F11963C932E93A689B7890C
:100900002C9181E090E0058C02C0880F991F0A9419
:10091000E2F7282B2C9381E090E0DF91CF910895AE
:1009200008951F920F920FB60F9211242F933F93A9
:100930004F938F939F93EF93FF934091C6008091C5
:100940007E0290917F0201968F73992720918002F9
:10095000309181028217930759F0E0917E02F09165
:100960007F02E25CFD4F408390937F0280937E0282
:10097000FF91EF919F918F914F913F912F910F9008
:100980000FBE0F901F9018958BED91E00E94F5031C
:10099000892B11F00C94900408951F920F920FB6BA
:1009A0000F9211242F933F938F939F93EF93FF9375
:1009B00020913A0230913B0280913C0290913D029D
:1009C0002817390731F48091C1008F7D8093C100D1
:1009D00014C0E0913C02F0913D02E650FE4F2081B0
:1009E00080913C0290913D0201968F7399279093DC
:1009F0003D0280933C022093C600FF91EF919F91AE
:100A00008F913F912F910F900FBE0F901F901895CF
:100A1000CF92DF92EF92FF92CF93DF93EC016A01C6
:100A20007B01411581EE580761057105F9F0EC89EC
:100A3000FD8981E090E00E8C02C0880F991F0A9416
:100A4000E2F7808360E079E08DE390E0A701960112
:100A50000E94531821503109410951095695479573
:100A600037952795211580E1380798F0EC89FD89A5
:100A7000108260E874E88EE190E0A70196010E9480
:100A80005318215031094109510956954795379519
:100A90002795E889F9893083EA89FB892083EE89E3
:100AA000FF89408181E090E09C010A8C02C0220F06
:100AB000331F0A94E2F7422B4083EE89FF8940817D
:100AC0009C010B8C02C0220F331F0A94E2F7422BC9
:100AD0004083EE89FF8940819C010C8C02C0220F6B
:100AE000331F0A94E2F7422B4083EE89FF8920816D
:100AF0000D8C02C0880F991F0A94E2F7809582231B
:100B00008083DF91CF91FF90EF90DF90CF90089599
:100B10001092DE011092DD0188EE93E0A0E0B0E0DB
:100B20008093DF019093E001A093E101B093E20193
:100B30008EE291E09093DC018093DB018EE392E002
:100B40009093E8018093E7018AEF91E09093EA01A6
:100B50008093E90185EC90E09093EC018093EB01A8
:100B600084EC90E09093EE018093ED0180EC90E0B6
:100B70009093F0018093EF0181EC90E09093F2016B
:100B80008093F10186EC90E09093F4018093F3015F
:100B900084E08093F50183E08093F60187E0809301
:100BA000F70185E08093F80181E08093F9010895D1
:100BB0000E948C020E949000C4ECD4E00E94EB00E2
:100BC0002097E1F30E94C404F9CFCF92DF92EF9215
:100BD000FF920F931F93CF93DF936C01EB017A0188
:100BE000E60EF71E00E010E00BC06991D601ED9112
:100BF000FC910190F081E02DC6010995080F191FA5
:100C0000CE15DF0591F7C801DF91CF911F910F91AC
:100C1000FF90EF90DF90CF900895DB010D900020C2
:100C2000E9F7AD0141505109461B570BDC01ED912D
:100C3000FC910280F381E02D09940C940D06DC01F7
:100C4000ED91FC910190F081E02D09940F931F9399
:100C5000CF93DF93EC016DE00E941F068C016AE0E8
:100C6000CE010E941F069C01200F311FC901DF9198
:100C7000CF911F910F9108950F931F93CF93DF93FF
:100C8000EC010E940D068C01CE010E9426069801FF
:100C9000280F391FC901DF91CF911F910F9108953E
:100CA0004F925F926F927F929F92AF92BF92CF923C
:100CB000DF92EF92FF920F931F93CF93DF93CDB705
:100CC000DEB7A1970FB6F894DEBF0FBECDBF5C01B3
:100CD0006A017B01922E19A281E0821710F08AE04E
:100CE000982E8E010F5D1F4F492C512C612C712CB9
:100CF000C701B601A30192010E9453188C2D929E48
:100D000080191124015011098A3010F4805D01C04E
:100D1000895CF801808369017A01C114D104E1047E
:100D2000F10431F7B801C5010E940D06A1960FB676
:100D3000F894DEBF0FBECDBFDF91CF911F910F9111
:100D4000FF90EF90DF90CF90BF90AF909F907F90FB
:100D50006F905F904F9008952115310541F4DC01AB
:100D6000ED91FC910190F081E02D642F09940C9499
:100D70005006CF92DF92EF92FF920F931F93CF9383
:100D8000DF93EC016A017B012115310579F4E881DB
:100D9000F9810190F081E02D642FDF91CF911F91B7
:100DA0000F91FF90EF90DF90CF9009942A3031059A
:100DB00019F477FD0EC02AE0B701A601CE01DF913C
:100DC000CF911F910F91FF90EF90DF90CF900C94F7
:100DD00050066DE20E941F068C0144275527BA0178
:100DE0004C195D096E097F092AE0CE010E94500668
:100DF000080F191FC801DF91CF911F910F91FF902C
:100E0000EF90DF90CF9008959A01AB01662757FDD0
:100E10006095762F0C94B906CF93DF931F92CDB7D0
:100E2000DEB76983DC01ED91FC910280F381E02D56
:100E300041E050E0BE016F5F7F4F09950F90DF9159
:100E4000CF910895FC01818D928D009711F00C9443
:100E5000840D0895CF93DF93EC01898D9A8D0097CF
:100E600009F40CC0FC01138212820E94CB0D9C017C
:100E7000E98DFA8D82819381892B31F081E090E0B8
:100E80009B838A8320E030E0C901DF91CF910895F0
:100E9000CF93DF931F92CDB7DEB741E050E0BE01A4
:100EA0006F5F7F4F0E94D70B019719F4298130E0C3
:100EB00002C02FEF3FEFC9010F90DF91CF9108954E
:100EC000FC01818D928D009711F00C9448078FEFF3
:100ED0009FEF08950F931F93CF93DF938C01FC0135
:100EE000818D928D0097B1F00E944807EC018F3FF1
:100EF000FFEF9F0789F0F801818D928DFC014285FB
:100F000053856485758541505109610971090E94B5
:100F1000E90C02C0C0E0D0E0CE01DF91CF911F917B
:100F20000F910895FC011382128248EE53E060E0B5
:100F300070E044835583668377838EE391E09183E9
:100F40008083128E118E148608952EE331E0FC0109
:100F50003183208308950F931F93DC015996ED91FF
:100F6000FC915A97309729F00285138524853585A1
:100F700003C00FEF1FEF9801B801C9011F910F9136
:100F800008950F931F93DC015996ED91FC915A97A8
:100F9000309729F0038914892589368903C000E038
:100FA00010E09801B801C9011F910F910895CF92E7
:100FB000DF92EF92FF92CF93DF93EC01898D9A8DB0
:100FC000892BE1F0CE010E94C1076B017C01CE01AB
:100FD0000E94AB07A7019601261B370B480B590B44
:100FE000DA01C901811530E89307A105B10520F0A8
:100FF0008FEF9FE7A0E0B0E09C0102C020E030E06E
:10100000C901DF91CF91FF90EF90DF90CF900895CD
:101010000F931F93CF93DF93EC01462F61E00E9463
:101020002C09811101C012C08E01045F1F4F41E0E5
:10103000BE01C8010E94A012882351F0B801CE0160
:101040008A960E94870B91E081110AC090E008C047
:1010500040E0BE01C8010E94A0128823B9F3EECF80
:10106000892FDF91CF911F910F91089510928702E0
:101070001092880210928B0210928D0282E090E012
:10108000A0E0B0E080938E0290938F02A093900234
:10109000B09391021092A5021092AF021092AE028C
:1010A0008EE491E09093AD028093AC021092B10275
:1010B00008958EBD0DB407FEFDCF08958FEF0E94F9
:1010C00059088EB5089561E0FC0184810C942903D0
:1010D00060E0FC0184810C942903CF93DF93EC0141
:1010E0008E818823C9F08FEF8EBD4FEF04C00DB401
:1010F00007FEFDCF4EBD8F8198859C012F5F3F4F2E
:1011000038872F838130924090F30DB407FEFDCFD6
:10111000CE010E9463081E82DF91CF91089567304F
:1011200028F026E1FC01258380E008958DB560FD5F
:1011300002C0663011F48E7F01C081608DBD8CB518
:101140008C7F8CBD9CB562FF02C082E001C080E054
:1011500066956170692B682B6CBD81E008950F93D3
:101160001F93CF93DF93EB010E942A028B010E9411
:101170005E088F3F49F00E942A02601B710B6C17BA
:101180007D07A8F380E001C081E0DF91CF911F913E
:101190000F910895CF92DF92FF920F931F93CF93F9
:1011A000DF9300D000D0CDB7DEB76C01F62E2983D7
:1011B0003A834B835C830E946D08C6010E946808D5
:1011C0006CE271E0C6010E94AF088F2D80640E941E
:1011D000590808E110E05C814B813A812981DA01EC
:1011E000C901002E04C0B695A795979587950A94D6
:1011F000D2F729833A834B835C830E9459080850B5
:10120000110929813A814B815C81083F8FEF1807D2
:1012100031F7FF2029F0E8E0FE1621F08FEF03C040
:1012200085E901C087E80E94590810E00E945E0825
:10123000F601828787FF04C01F3F11F01F5FF6CFC2
:101240000F900F900F900F90DF91CF911F910F9102
:10125000FF90DF90CF900895BF92CF92DF92EF92F0
:10126000FF920F931F93CF93DF93EC01B62E1B8653
:1012700019861E821D824C830E942A028B0161E026
:101280008C810E94F102CE010E94630860E08CE034
:101290000E94F10261E08BE00E94F10261E08DE0CA
:1012A0000E94F10261E08AE00E94F10261E08AE0BE
:1012B0000E94290383E58CBD8DB58E7F8DBD2AE00C
:1012C000F22E8FEF0E945908FA94D9F7CE010E94AE
:1012D000680809C00E942A02601B710B613D7740BB
:1012E00010F081E058C020E030E0A90160E0CE01BC
:1012F0000E94CA08F82E8A8781E0F812EBCF2AEA0A
:1013000031E040E050E068E0CE010E94CA0882FF70
:1013100002C0FB860DC094E0F92E0E945E088A8709
:10132000FA94D9F78A3A11F082E035C082E08B87CF
:101330008B85823031F4C12CD12CE12C80E4F82E45
:101340000DC0C12CD12C760109C00E942A02601B5D
:10135000710B613D774010F088E01DC020E030E067
:10136000A90167E3CE010E94CA08A701960169E2BC
:10137000CE010E94CA088A878111E7CF8B8582300F
:10138000C9F420E030E0A9016AE3CE010E94CA0856
:10139000882319F086E08D831DC00E945E08807C42
:1013A000803C11F483E08B870E945E080E945E08F7
:1013B0000E945E08CE010E9463086B2DCE01DF9172
:1013C000CF911F910F91FF90EF90DF90CF90BF9042
:1013D0000C948F08CE010E94630880E0DF91CF91CA
:1013E0001F910F91FF90EF90DF90CF90BF900895E5
:1013F0000F931F93CF93DF93EC010E942A028B017E
:1014000009C00E942A02601B710B6D32714010F0FE
:101410008FE008C00E945E088A878F3F91F38E3F5D
:1014200039F08DE08D83CE010E94630880E001C019
:1014300081E0DF91CF911F910F910895CF92DF92BC
:10144000EF92FF920F931F93CF93DF93EC0169010B
:101450000115110509F475C0C801820F931F813071
:10146000924008F070C08E81882371F08881998144
:10147000AA81BB81481759076A077B0729F48F8126
:101480009885C816D90618F5488359836A837B83E3
:101490008B85833039F0B9E0440F551F661F771FE5
:1014A000BA95D1F79A01AB0161E1CE010E94CA0859
:1014B000882319F083E08D8346C0CE010E94F8098D
:1014C000882309F440C018861F8281E08E838FEF45
:1014D0008EBD2FEF09C00DB407FEFDCF2EBD8F814D
:1014E0009885019698878F838F8198858C159D05A7
:1014F00090F3C8010197F7014FEF06C00DB407FE46
:10150000FDCF2EB521934EBD9F012E193F092817FF
:101510003907A0F30DB407FEFDCF2EB5F701E80F94
:10152000F91F20838F819885800F911F98878F8363
:101530002985222319F08115924018F0CE010E94CE
:101540006D0881E004C0CE010E94630880E0DF9155
:10155000CF911F910F91FF90EF90DF90CF90089562
:10156000EF92FF920F931F93790100E012E020E0C9
:1015700030E00E941E0A1F910F91FF90EF90089596
:10158000CF93DF93EC016EBD20E030E00DB407FE99
:10159000FDCFFA01E20FF31F80818EBD0DB407FE6F
:1015A000FDCF81818EBD2E5F3F4F211582E0380730
:1015B00069F70DB407FEFDCF8FEF0E9459088FEF3A
:1015C0000E9459080E945E088A878F71853039F021
:1015D00081E18D83CE010E94630880E001C081E03B
:1015E000DF91CF9108950F931F93CF93DF93EC0179
:1015F0008901411551056105710511F482E138C079
:101600008B85833039F089E0440F551F661F771FA3
:101610008A95D1F79A01AB0168E1CE010E94CA0810
:10162000882311F084E024C0A8016EEFCE010E944F
:10163000C00A8823B9F068E572E0CE010E94AF08C5
:10164000811102C085E114C020E030E0A9016DE005
:10165000CE010E94CA0881110AC00E945E08811151
:1016600006C008C0CE010E94630880E007C084E184
:101670008D83F8CFCE010E94630881E0DF91CF9186
:101680001F910F910895CF93DF93EC019C012A5F86
:101690003F4F41E050E060E070E08B8D9C8D0E94F8
:1016A00089118823A1F04F89588D698D7A8D452B3A
:1016B000462B472B71F44E815F81688579854F8B6E
:1016C000588F698F7A8F8C8180688C8302C080E00C
:1016D00001C081E0DF91CF910895CF93DF93EC01BA
:1016E000462F6E857F85888999890E94BD0F882342
:1016F00041F02A8980E2289F900111242C523D4F0D
:1017000002C020E030E0C901DF91CF9108950F932E
:101710001F93CF93DF93EC018B018D81882311F010
:1017200080E040C0FB0187898031B1F482E08D8385
:101730001F8A188E198E1A8E408D518D60E070E0D0
:1017400085E0440F551F661F771F8A95D1F74B8B95
:101750005C8B6D8B7E8B15C0803211F783E08D839F
:10176000FB01428D538D648D758D4F8B588F698F22
:101770007A8F9E012D5E3F4FC8010E947D10882305
:1017800079F21C8F0B8F81E08C831E821F8218865A
:1017900019861A861B861C861D861E861F86188A39
:1017A000198A1A8ADF91CF911F910F9108952F9274
:1017B0003F924F925F926F927F928F929F92AF92E1
:1017C000BF92CF92DF92EF92FF920F931F93CF932E
:1017D000DF93EC01FB014A018D81811103C02FEFE2
:1017E0003FEFE3C08C8180FFFACFB3C04A01881A73
:1017F000990A24016F011E0126E0220E311CA3C0AC
:101800004A855B856C857D85DB01CA019170AA27BD
:10181000BB275C01ED818A019B01F9E03695279594
:1018200017950795FA95D1F78B8D9C8DE23051F481
:10183000FC01628D738D848D958D600F711F821FE9
:10184000931F3EC0FC0174807A947022A114B104ED
:10185000C9F4711017C0452B462B472B49F48F89CB
:10186000988DA98DBA8D8E839F83A887B9870AC06A
:101870004E815F816885798591010E94F80F8823E8
:1018800009F4ADCFEB8DFC8D6E817F8188859985C4
:101890006250710981099109058404C0660F771FA0
:1018A000881F991F0A94D2F70685178520893189E8
:1018B000600F711F821F931F670D711D811D911D88
:1018C00020E032E02A193B0932012415350508F4DD
:1018D00039012C8126FD05C06114F2E07F0609F074
:1018E0005EC000910F011091100120911101309103
:1018F0001201601771078207930709F042C04FC0B9
:10190000C60CD71C12C0C5018C529D4F9C01260DE0
:10191000371DFC01D60102C041914D93E217F30738
:10192000D9F7E81BF90BCE0EDF1E8A859B85AC85A7
:10193000BD85860D971DA11DB11D8A879B87AC872C
:10194000BD87461857084114510409F059CF940136
:101950002CC04B895C896D897E898A859B85AC8585
:10196000BD852401612C712C8A019B01081B190B78
:101970002A0B3B0B041515052605370508F436CF51
:1019800038CF760183019501AB01BC018091D20271
:101990009091D3020E941E0A8111B2CF20CF40E065
:1019A0000E94BD0F8111AFCF1ACFC901DF91CF9136
:1019B0001F910F91FF90EF90DF90CF90BF90AF906D
:1019C0009F908F907F906F905F904F903F902F905F
:1019D00008958F929F92AF92BF92CF92DF92EF9233
:1019E000FF920F931F93CF93DF93EC014A015B01AA
:1019F0002D81222309F475C08B899C89AD89BE890C
:101A000084179507A607B70708F46BC06CC081144C
:101A10009104A104B10449F41E821F82188619861C
:101A20001A861B861C861D865AC04A855B856C8576
:101A30007D85EB8DFC8D258530E0275F3F4FDB01F9
:101A4000CA010197A109B109022E04C0B695A79554
:101A5000979587950A94D2F7CC24CA94DC2C76010A
:101A6000C80CD91CEA1CFB1C04C0F694E794D7945C
:101A7000C7942A95D2F7C816D906EA06FB0620F0C5
:101A8000452B462B472B49F48F89988DA98DBA8D0C
:101A90008E839F83A887B98716C0C81AD90AEA0A15
:101AA000FB0A11C04E815F816885798598018B8D15
:101AB0009C8D0E94F80F91E0C91AD108E108F10845
:101AC000811104C00EC08E010A5F1F4FC114D104E2
:101AD000E104F10439F78A869B86AC86BD8681E0F5
:101AE00006C080E004C0223009F091CFF4CFDF912E
:101AF000CF911F910F91FF90EF90DF90CF90BF900B
:101B0000AF909F908F9008950F931F93CF93DF9383
:101B1000EC018D818823C9F18C8187FF30C061E0A1
:101B2000CE010E946D0B8C01009779F18D8182307E
:101B300048F44B895C896D897E89F801448F558F03
:101B4000668F778F4F89588D698D7A8DF801538F05
:101B5000428F758B648BE091CB02F091CC02309771
:101B600059F0B8016A5E7F4FC80148960995F8019F
:101B7000808D918D938B828B8C818F778C83DF917D
:101B8000CF911F910F910C94820F80E0DF91CF9144
:101B90001F910F9108952F923F924F925F926F92F3
:101BA0007F928F929F92AF92BF92CF92DF92EF92ED
:101BB000FF920F931F93CF93DF9300D000D01F921B
:101BC000CDB7DEB78C01962E872E6A01DC01159603
:101BD0008C91813009F05FC1F801848181FF5BC184
:101BE00064C1D80153964D915D916D917C9156974A
:101BF0001A968D919D910D90BC91A02D84179507FB
:101C0000A607B70721F45601E92CF82C0CC1C8012E
:101C10000E94E90C882309F43EC1F5CFF801838DB9
:101C2000948DDC011496BC91B150B301A201A9E0DE
:101C30007695679557954795AA95D1F7B423BD83B7
:101C4000B301A2015170662777273A01B11141C053
:101C500041155105F1F54681578160857185411522
:101C600051056105710549F48789908DA18DB28D6B
:101C70000097A105B10541F521C09E012F5F3F4F9F
:101C80000E94F80F811101C00DC189819A81AB8139
:101C9000BC81F801238D348DF9012789203129F485
:101CA00048EF5FEF60E070E004C048EF5FEF6FEF78
:101CB0007FE084179507A607B70730F0C8010E9498
:101CC000430B811106C0E7C0F80186839783A08784
:101CD000B18780E092E08619970945018A159B0536
:101CE00008F44C01D8015B96ED91FC915C97169637
:101CF0002D903D904D905C901997B2E02B1A3108D1
:101D000041085108058404C0220C331C441C551C96
:101D10000A94D2F786859785A089B189280E391E45
:101D20004A1E5B1EED812E0E311C411C511C81147C
:101D3000F2E09F0639F580910F0190911001A0917A
:101D40001101B091120182159305A405B50559F44E
:101D50008FEF9FEFDC0180930F0190931001A09310
:101D60001101B09312019701B201A1018091D20239
:101D70009091D3020E94F30A882309F48CC09EEF4D
:101D8000F91A42C06114710429F5D8011A964D91CF
:101D90005D916D917C911D9753968D919D910D90C4
:101DA000BC91A02D481759076A077B0798F00E943D
:101DB000820F882309F46FC020920F013092100126
:101DC00040921101509212018091D1028160809362
:101DD000D10208C041E0C201B1010E94BD0F8823B9
:101DE00009F459C0C3018C529D4F9C01280D391D27
:101DF000D701FC0102C04D914193E217F307D9F7D7
:101E0000E81BF90BEE0EFF1EA818B908F801828531
:101E10009385A485B585880D991DA11DB11D828767
:101E20009387A487B587D8011A964D905D906D90E1
:101E30007C901D97A114B10409F0F0CE53968D91BA
:101E40009D910D90BC91A02D84159505A605B70513
:101E500048F4F801438A548A658A768A84818068C6
:101E6000848310C08091CB029091CC02892B51F0D9
:101E7000C114D10439F0D80114968C91149780685C
:101E800014968C93F801848183FF12C0C8010E94CC
:101E9000840D81110DC081E090E0D80113969C93D0
:101EA0008E931297C12CD12C03C082FD9ACEABCE5B
:101EB000C6010F900F900F900F900F90DF91CF9170
:101EC0001F910F91FF90EF90DF90CF90BF90AF9058
:101ED0009F908F907F906F905F904F903F902F904A
:101EE0000895CF93DF931F92CDB7DEB7698341E0AA
:101EF00050E0BE016F5F7F4F0E94CB0D0F90DF91CE
:101F0000CF9108958091D102882399F140910F01DA
:101F100050911001609111017091120124ED32E095
:101F20008091D2029091D3020E94F30A882319F182
:101F30004091CD025091CE026091CF027091D002BB
:101F4000411551056105710591F024ED32E0809154
:101F5000D2029091D3020E94F30A882361F010927A
:101F6000CD021092CE021092CF021092D0021092A7
:101F7000D10281E0089580E00895CF92DF92EF9240
:101F8000FF92CF936B017C01C42F80910F01909140
:101F90001001A0911101B09112018C159D05AE05A3
:101FA000BF05D1F00E94820F811102C080E01AC0EB
:101FB00024ED32E0B701A6018091D2029091D302C4
:101FC0000E94B00A882391F3C0920F01D0921001B1
:101FD000E0921101F09212018091D1028C2B80933A
:101FE000D10281E0CF91FF90EF90DF90CF900895E4
:101FF0008F929F92AF92BF92CF92DF92EF92FF9219
:102000000F931F93CF93DF938C016A017B01E9014A
:10201000FC0181859285A385B4850196A11DB11D22
:1020200084179507A607B70710F480E059C0F80198
:1020300043895489658976898789803129F4BB274A
:10204000AF2D9E2D8D2D09C0D701C60127E0B69575
:10205000A795979587952A95D1F74C015D01840E38
:10206000951EA61EB71EC501B40180900F01909069
:102070001001A0901101B0901201681579058A0530
:102080009B0529F4F80187898031A1F406C040E05E
:102090000E94BD0F8111F6CFC8CFDD24EE24FF24AE
:1020A000F601EE0FFF1FEC52FD4F80819181A0E001
:1020B000B0E011C0E894C7F8DD24EE24FF24F60157
:1020C000EE0FFF1FEE0FFF1FEC52FD4F808191813D
:1020D000A281B381BF7088839983AA83BB8381E087
:1020E000DF91CF911F910F91FF90EF90DF90CF90F4
:1020F000BF90AF909F908F9008954F925F926F9294
:102100007F92AF92BF92CF92DF92EF92FF920F93A6
:102110001F93CF93DF9300D000D0CDB7DEB78C01F3
:1021200049835A836B837C835901C12CD12C76015E
:10213000412C42E0542E612C712C49815A816B81D3
:102140007C819E012F5F3F4FC8010E94F80F8823BA
:1021500059F1D301C201F801058404C0880F991F09
:10216000AA1FBB1F0A94D2F7C80ED91EEA1EFB1E77
:1021700049815A816B817C818789803129F488EF7C
:102180009FEFA0E0B0E004C088EF9FEFAFEFBFE0AB
:10219000481759076A077B0780F2F501C082D18290
:1021A000E282F38281E001C080E00F900F900F90F7
:1021B0000F90DF91CF911F910F91FF90EF90DF90E3
:1021C000CF90BF90AF907F906F905F904F900895A9
:1021D0004F925F926F927F928F929F92AF92BF9237
:1021E000CF92DF92EF92FF920F931F93CF93DF93E3
:1021F000EC016A017B01280139014230510561057A
:10220000710508F474C089859A85AB85BC850196F3
:10221000A11DB11D84179507A607B70708F467C06D
:102220008B889C88AD88BE888F89803129F4BB2734
:10223000A72F962F852F09C0DB01CA0177E0B6953D
:10224000A795979587957A95D1F7880E991EAA1E1E
:10225000BB1E80910F0190911001A0911101B091CE
:10226000120188169906AA06BB0621F48F898031CF
:10227000A1F408C040E0C501B4010E94BD0F811166
:10228000F5CF35C0DD24EE24FF24F601EE0FFF1F4D
:10229000EC52FD4F5182408210C0E894C7F8DD2413
:1022A000EE24FF24F601EE0FFF1FEE0FFF1FEC528E
:1022B000FD4F40825182628273828091D10281609F
:1022C0008093D1028A89823080F08D819E81AF8196
:1022D000B885880D991DAA1DBB1D8093CD029093D2
:1022E000CE02A093CF02B093D00281E001C080E083
:1022F000DF91CF911F910F91FF90EF90DF90CF90E2
:10230000BF90AF909F908F907F906F905F904F9015
:1023100008952F923F924F925F926F927F929F9279
:10232000AF92BF92CF92DF92EF92FF920F931F93E3
:10233000CF93DF93CDB7DEB760970FB6F894DEBFCB
:102340000FBECDBF5C014D875E876F87788B19010B
:10235000D9014D905D906D907C90411451046104C1
:10236000710431F0BFEF4B1A5B0A6B0A7B0A10C095
:10237000FC014080518062807380992493942D8564
:102380003E854F855889213031054105510509F0B9
:10239000912CD50119968D919D910D90BC91A02DF8
:1023A0000196A11DB11D89879A87AB87BC877301F0
:1023B00062011D821E821F821886F5018185928529
:1023C000A385B4852D813E814F8158852817390713
:1023D0004A075B0708F056C089859A85AB85BC859E
:1023E0008C159D05AE05BF0550F4F2E0CF2ED12C23
:1023F000E12CF12CA2E04A2E512C612C712C9E0173
:102400002F5F3F4FB701A601C5010E94F80F882337
:10241000C9F149815A816B817C81D701C60101963E
:10242000A11DB11D452B462B472B19F02C013D0159
:102430000DC084199509A609B7092D853E854F85DC
:10244000588982179307A407B50789F08D819E816B
:10245000AF81B8850196A11DB11D8D839E83AF8389
:10246000B8879FEFC91AD90AE90AF90AA6CF0FEF70
:102470001FEF2FEF3FE0A601B701C5010E94E81052
:1024800081111BC080E044C0A70196012150310991
:10249000410951092D833E834F8358879701860157
:1024A0004D815E816F817885C5010E94E810882387
:1024B00049F3CD80DE80EF80F8844C145D046E0417
:1024C0007F0410F3D1014D915D916D917C91411587
:1024D00051056105710541F4F1014082518262822A
:1024E0007382911009C013C093018201C5010E943B
:1024F000E8108111F1CFC6CFFFEF4F1A5F0A6F0AC4
:102500007F0AD5014D925D926D927C92139781E086
:1025100060960FB6F894DEBF0FBECDBFDF91CF91AE
:102520001F910F91FF90EF90DF90CF90BF90AF90F1
:102530009F907F906F905F904F903F902F90089565
:102540008F929F92AF92BF92CF92DF92EF92FF92C3
:102550001F93CF93DF93EC01142F7093D3026093FA
:10256000D202442341F1453010F080E0EFC040E05A
:1025700060E070E0CB010E94BD0F8823B1F320E141
:10258000129FF0011124EE57FB4F80818F7769F77E
:1025900084859585A685B78584369105A105B10505
:1025A00020F3C084D184E284F384C114D104E10413
:1025B000F10421F4DACFC12CD12C760140E0C7011F
:1025C000B6010E94BD0F882381F28091DF029091B5
:1025D000E0028115924049F63091E402332329F25A
:1025E0008091E2029091E302892B09F4BECF209101
:1025F000E102222309F4B9CF3A8B2C831D8630E007
:1026000041E050E006C0812F8F5F8D87183008F0C1
:10261000ACCF1D85CA01012E02C0880F991F0A94F4
:10262000E2F72817390779F72091EA023091EB0297
:102630002115310519F040E050E008C02091F80262
:102640003091F9024091FA025091FB022D833E83B2
:102650004F8358878091E2029091E302460157012F
:10266000880E991EA11CB11C8B8A9C8AAD8ABE8AD9
:10267000E091E502F091E602F98FE88FA091E40283
:10268000B0E00E943C18680D791D8A1D9B1D6A8F61
:102690007B8F8C8F9D8FB5E0EE0FFF1FBA95E1F712
:1026A000E150FE4FEF2FFF27E695DC01CB018E0FA7
:1026B0009F1FA11DB11D8E879F87A88BB98B80900E
:1026C000E7029090E8028114910419F0A12CB12C3A
:1026D00008C08090F4029090F502A090F602B090AD
:1026E000F702A7019601281B390B4A0B5B0BDA0195
:1026F000C901880D991DAA1DBB1D04C0B695A795DB
:10270000979587951A95D2F789879A87AB87BC8763
:10271000853F3FE09307A105B10510F48CE014C09C
:10272000853F9F4FA105B10510F480E10DC0809158
:10273000000390910103A0910203B09103038A8FDB
:102740009B8FAC8FBD8F80E28F8B81E0DF91CF912B
:102750001F91FF90EF90DF90CF90BF90AF909F9030
:102760008F9008952091040530E080910505281B85
:102770003109C901089580910505909104058917D3
:1027800050F4E82FF0E0EA5FFA4F208130E08F5FED
:102790008093050502C02FEF3FEFC9010895E09136
:1027A000050580910405E81730F4F0E0EA5FFA4F80
:1027B000208130E002C02FEF3FEFC9010895089556
:1027C000CF92DF92EF92FF920F931F93CF93DF93FD
:1027D0007C01CB018A012091E004222391F0EB01DE
:1027E0006B01C40ED51E09C06991D701ED91FC9112
:1027F0000190F081E02DC7010995CC15DD05A1F709
:1028000003C0642F0E944415C801DF91CF911F912E
:102810000F91FF90EF90DF90CF900895CF93DF93CB
:102820001F92CDB7DEB769832091E0042223D1F057
:102830002091E104203240F021E030E0FC013383BC
:10284000228320E030E015C08091E204E82FF0E020
:10285000ED51FB4F998190838F5F8093E2048093C9
:10286000E10405C061E0CE0101960E94441521E01B
:1028700030E0C9010F90DF91CF910895FC011382E0
:10288000128248EE53E060E070E044835583668333
:10289000778386E591E09183808308951092050502
:1028A000109204051092E2041092E1040C948E142C
:1028B000862F413208F040E266E075E00E94AC14D9
:1028C0001092050580930405089521E00C94581496
:1028D00081E08093E004609303051092E20410927B
:1028E000E10408950C9468140F93062F21E04091A1
:1028F000E10463EE74E0809103050E94F1141092EC
:10290000E2041092E1041092E0040F91089561E056
:102910000C94741484ED94E00C943E1410922F05E2
:1029200081E080932D0510922C0561E082E10E94E8
:10293000290361E083E10E942903E9EBF0E0808153
:102940008E7F808380818D7F808388E48093B80030
:1029500085E48093BC000895413208F03FC0909117
:102960002F059111FCCF91E090932F0520932D0519
:102970002FEF2093260510922B05242F2150209312
:102980002A0590932E0590912E05880F892B809310
:102990002E0580912C05813041F410922C058091F8
:1029A0002E058093BB0085EC01C085EE8093BC00B2
:1029B00080912F058130E1F380912B05841710F46D
:1029C00040912B0520E335E0FB01D90102C08D9138
:1029D00081938A2F821B8417D0F301C040E0842F9B
:1029E00008950F93413208F046C090912F05911140
:1029F000FCCF92E090932F0500932D059FEF9093CD
:102A0000260510922B0540932A05FB0160E375E033
:102A1000DB0102C091919D939A2F961B9417D0F3DE
:102A200010922E0590912E05880F892B80932E05EC
:102A300080912C05813041F410922C0580912E0557
:102A40008093BB0085EC01C085EE8093BC002223FF
:102A500021F080912F058230E1F3809126058F3F90
:102A600061F080912605803251F0809126058033F7
:102A700041F483E007C081E005C080E003C082E04C
:102A800001C084E00F910895613298F420912F05E0
:102A9000243089F460932805FC0180E595E0DC0191
:102AA00002C021912D932A2F281B2617D0F380E0F6
:102AB000089581E0089582E0089585ED8093BC003B
:102AC0008091BC0084FDFCCF10922F05089585EC09
:102AD0008093BC0010922F0508951F920F920FB69D
:102AE0000F9211242F933F934F935F936F937F9394
:102AF0008F939F93AF93BF93EF93FF938091B90010
:102B0000887F803609F49FC058F5883209F45BC08D
:102B100090F4803109F452C038F4882309F4F8C0E5
:102B2000883009F0F9C04AC0883109F44CC08032BD
:102B300009F0F2C05CC0803409F46BC038F4803313
:102B400009F455C0883309F0E7C054C0803509F452
:102B500054C0883509F462C0883409F0DDC0DAC099
:102B6000883909F4CBC0A8F4883709F46CC038F46C
:102B7000883609F468C0803709F0CEC064C0883850
:102B800009F4BCC0803909F464C0803809F0C4C0BD
:102B900060C0803B09F48AC038F4803A09F46BC005
:102BA000883A09F0B9C082C0803C09F4ABC0883CC7
:102BB00009F4A8C0883B09F0AFC08DC080912E05F4
:102BC0008093BB0012C090912B0580912A05981725
:102BD00088F580912B05E82FF0E0E05DFA4F9081B9
:102BE0009093BB008F5F80932B0585EC88C080930A
:102BF000260590C08093260556C080912B059091A4
:102C0000BB00E82FF0E0E05DFA4F90838F5F809388
:102C10002B0590912B0580912A056DC080912B0585
:102C20009091BB00E82FF0E0E05DFA4F90838F5F5A
:102C300080932B0580912D0581116CC081E08093DC
:102C40002C0584EA60C083E080932F05109227054D
:102C5000CCCF80912705803208F050C080912705A5
:102C60009091BB00E82FF0E0EC58FA4F90838F5F13
:102C700080932705BACF80912705803230F4E09108
:102C80002705F0E0EC58FA4F10820E945D15609124
:102C90002705E0917005F091710570E084E795E0FB
:102CA0000995109227050E94671536C084E080932D
:102CB0002F051092290510922805E0917205F091D8
:102CC0007305099580912805811105C081E08093E5
:102CD00028051092500580912905E82FF0E0E05B6F
:102CE000FA4F90819093BB008F5F8093290590915C
:102CF000290580912805981708F477CF85E88093F7
:102D0000BC000AC085EC8093BC0010922F0504C063
:102D1000109226050E945D15FF91EF91BF91AF9132
:102D20009F918F917F916F915F914F913F912F91E3
:102D30000F900FBE0F901F901895FC01208120531B
:102D40002A3008F020E0FC0181818053FAE02F9FB7
:102D5000800D11240895DC01ED91FC910190F0812A
:102D6000E02D0994EF92FF920F931F93CF93DF937F
:102D7000EC018B017A01CB0109960E949D16888394
:102D8000F80180818A3499F038F48434A9F18634CA
:102D9000D9F0813499F51AC08E3461F118F48D346C
:102DA00069F51CC08F3421F1833541F51FC0F8014E
:102DB0008181813639F082818E3611F486E01DC022
:102DC00087E01BC081E019C082E017C0F801828152
:102DD000823711F484E011C088E00FC0F8018281CD
:102DE000823711F483E009C085E007C089E005C09F
:102DF0008AE003C08BE001C08CE08983C80104969F
:102E00000E949D168A83C7010E949D168B83C7016D
:102E100003960E949D168C83C70106960E949D16FC
:102E20008D83DF91CF911F910F91FF90EF900895C7
:102E300081E008951F93CF93DF93EC0168E670E083
:102E400084ED94E00E947214609194057091950550
:102E500084ED94E00E94AB162D811AE0822F612F41
:102E60000E944718682F660F680F660F620F84ED87
:102E700094E00E940E142C81822F612F0E9447182B
:102E8000682F660F680F660F620F84ED94E00E9452
:102E90000E142B81822F612F0E944718682F660F16
:102EA000680F660F620F84ED94E00E940E1460E0DC
:102EB00084ED94E00E940E142A81822F612F0E94DB
:102EC0004718682F660F680F660F620F84ED94E055
:102ED0000E940E142981822F612F0E944718682FAB
:102EE000660F680F660F620F84ED94E00E940E1467
:102EF0002881822F612F0E944718682F660F680F64
:102F0000660F620F84ED94E00E940E1460919405A8
:102F10007091950584ED94E00E94AB1684ED94E0E9
:102F2000DF91CF911F910C9487141F93CF93DF9360
:102F3000CDB7DEB72B970FB6F894DEBF0FBECDBF6F
:102F400068E670E084ED94E00E947214609194054C
:102F50007091950584ED94E00E94AB1684ED94E0A9
:102F60000E94871447E050E068E670E084ED94E04A
:102F70000E94651484ED94E00E94BB138F7799271B
:102F80009C01F4E035952795FA95E1F71AEF782F33
:102F9000129F700D112484ED94E07B870E94BB1377
:102FA0009C013327A4E035952795AA95E1F7682F72
:102FB000129F600D112484ED94E06A870E94BB1378
:102FC0009C013327B4E035952795BA95E1F7582F42
:102FD000129F500D112484ED94E059870E94BB1379
:102FE00084ED94E00E94BB139C01332794E0359557
:102FF00027959A95E1F7482F129F400D112484EDF3
:1030000094E048870E94BB139C01332744E0359528
:1030100027954A95E1F7382F129F300D112484ED42
:1030200094E03F830E94BB13FC01FF2754E0F59519
:10303000E7955A95E1F7282F1E9F200D11243F8117
:10304000488559856A857B8580E090E02B960FB690
:10305000F894DEBF0FBECDBFDF91CF911F910895D1
:10306000A29FB001B39FC001A39F01D0B29F700D7A
:10307000811D1124911D08950E943018A59F900D67
:10308000B49F900DA49F800D911D11240895991B4C
:1030900079E004C0991F961708F0961B881F7A954F
:1030A000C9F780950895A1E21A2EAA1BBB1BFD014A
:1030B0000DC0AA1FBB1FEE1FFF1FA217B307E40717
:1030C000F50720F0A21BB30BE40BF50B661F771F6F
:1030D000881F991F1A9469F760957095809590954F
:1030E0009B01AC01BD01CF010895EE0FFF1F0590BC
:1030F000F491E02D099410E0CAECD0E004C0FE0188
:103100000E9477182296CC3CD107C9F7F894FFCFDC
:103110000500060007000300020001000D0001FF8A
:10312000FFFFFF32333A30363A35380041707220B3
:1031300020362032303133002C00000000005A04C9
:10314000E505F503240408044804000000000C070A
:103150002A07D70760076A07220700000000710FDF
:10316000E505000000000E14E013B213BB13CF13EB
:02317000DF136B
:00000001FF
