:100000000C946E000C9496000C9496000C94960040
:100010000C9496000C9496000C9496000C94960008
:100020000C9496000C9496000C9496000C949600F8
:100030000C9496000C9496000C9496000C949600E8
:100040000C9413030C9496000C94C4050C940006B5
:100050000C9496000C9496000C9496000C949600C8
:100060000C941D1C0C949600000000070002010077
:100070000003040600000000000000000102040864
:100080001020408001020408102001020408102002
:10009000040404040404040402020202020203032E
:1000A00003030303000000002300260029000000D2
:1000B0000000250028002B0000000000240027007D
:1000C0002A007C3C3E5E2B3D3F2F5B5D3B2C2A2271
:1000D0005C00C802BB06470B3A1BEE0211241FBE90
:1000E000CFEFD8E0DEBFCDBF11E0A0E0B1E0E2E6A7
:1000F000F1E402C005900D92A03FB107D9F716E0D8
:10010000A0EFB1E001C01D92A632B107E1F710E007
:10011000CAEDD0E004C02297FE010E94271FC23D15
:10012000D107C9F70E940B070C94A4200C9400007F
:10013000CF93DF93CDB7DEB7A1970FB6F894DEBFAC
:100140000FBECDBF40E051EE60E070E087E692E088
:100150000E943B0680E695E00E94FE1A0E94C81DA0
:1001600044E251E06DE271E0CE014C960E94621DC6
:10017000CE014C960E94CA1D68EE73E080E090E0CC
:100180000E94990361E080910A010E94240460E0CA
:10019000809106010E94240461E080910A010E947E
:1001A0005C0461E0809108010E94240461E0809178
:1001B00008010E945C0461E0809110010E94240407
:1001C0006AE08EE093E00E94A609811103C069E312
:1001D00071E048C060E571E087E692E00E946F0739
:1001E00023E144E651E06EE073E0CE0101960E9407
:1001F000C10A8B819C819093FF018093FE018D81C8
:100200009E81AF81B8858093000290930102A093F4
:100210000202B093030289859A85AB85BC858093E1
:10022000040290930502A0930602B09307028DE0AA
:10023000FE013D96A8E0B2E001900D928A95E1F7AB
:100240008A8D9B8D9093160280931502CE010196A4
:100250000E9431096FE671E087E692E00E94500744
:1002600062E171E087E692E00E946F07A1960FB607
:10027000F894DEBF0FBECDBFDF91CF910895EF920E
:10028000FF920F931F93CF93DF93CDB7DEB7A7975E
:100290000FB6F894DEBF0FBECDBF0E94451E2AA345
:1002A0003BA34CA35DA36EA37FA386E0FE01B296A1
:1002B000DE015C9601900D928A95E1F7EE8CFF8C41
:1002C00008A119A18091FA010E94F2029093F9010C
:1002D0008093F80180910E010E94F2029093F70141
:1002E0008093F60180910C010E94F2029093F50137
:1002F0008093F40120E432E44FE050E061E080912B
:1003000006010E9493046093F0017093F1018093C1
:10031000F2019093F3016CE771E087E692E00E94AE
:1003200050076091F8017091F9014AE050E087E6CA
:1003300092E00E94570862E871E087E692E00E942E
:10034000500764E871E087E692E00E9450076091F0
:10035000F4017091F5014AE050E087E692E00E94D6
:10036000570862E871E087E692E00E9450074091EA
:10037000F0015091F1016091F2017091F3012AE0D6
:1003800030E087E692E00E94DF0762E871E087E6EE
:1003900092E00E94500762E971E087E692E00E94D5
:1003A00050076091F6017091F7014AE050E087E64E
:1003B00092E00E9457086FE971E087E692E00E94A0
:1003C00050074AE050E06E2D87E692E00E94EC076D
:1003D00065EA71E087E692E00E9450074AE050E04B
:1003E0006F2D87E692E00E94EC076CEA71E087E6E9
:1003F00092E00E9450074AE050E0602F87E692E0CA
:100400000E94EC0762EB71E087E692E00E945007E1
:100410004AE050E0612F87E692E00E94F307609186
:10042000F8017091F9014AE050E08CEF91E00E94F0
:10043000570862E871E08CEF91E00E9450076091EC
:10044000F6017091F7014AE050E08CEF91E00E94D4
:10045000570862E871E08CEF91E00E9450074091EC
:10046000F0015091F1016091F2017091F3012AE0E5
:1004700030E08CEF91E00E94DF0762E871E08CEFE2
:1004800091E00E9450074AE050E06E2D8CEF91E021
:100490000E94EC0762E871E08CEF91E00E94500747
:1004A0004AE050E06F2D8CEF91E00E94EC0762E88B
:1004B00071E08CEF91E00E9450074AE050E0602F1D
:1004C0008CEF91E00E94EC0762E871E08CEF91E024
:1004D0000E9450074AE050E0612F8CEF91E00E94AB
:1004E000F3078CEF91E00E94940968E776EE80E0D4
:1004F00090E00E94990368EE73E080E090E00E9433
:10050000990323E144E651E06EE073E0CE010196E9
:100510000E94C10A8B819C819093FF018093FE0110
:100520008D819E81AF81B8858093000290930102F6
:10053000A0930202B093030289859A85AB85BC859E
:100540008093040290930502A0930602B0930702E1
:100550008DE0FE013D96A8E0B2E001900D928A95F3
:10056000E1F78A8D9B8D9093160280931502CE0140
:1005700001960E943109A7960FB6F894DEBF0FBE10
:10058000CDBFDF91CF911F910F91FF90EF90089514
:10059000109257021092580210925B0210925D0264
:1005A00082E090E0A0E0B0E08093340290933502C6
:1005B000A0933602B093370210924B0210921A02A7
:1005C000109219028CED91E090931802809317021B
:1005D00010921C028CEF91E00C941E098CEF91E0BC
:1005E0000C9431098E3008F08E50877020911F01D5
:1005F00040E4249F90011124822B80937C00809101
:100600007A00806480937A0080917A0086FDFCCF26
:100610002091780030917900932F80E0AC01422B3B
:100620009A01C90108951F920F920FB60F921124DB
:100630002F933F938F939F93AF93BF9380915E02CD
:1006400090915F02A0916002B091610230916602C8
:10065000232F2D5F2D3720F40196A11DB11D05C05C
:10066000232F2A570296A11DB11D20936602809365
:100670005E0290935F02A0936002B093610280914A
:10068000620290916302A0916402B09165020196AA
:10069000A11DB11D8093620290936302A093640236
:1006A000B0936502BF91AF919F918F913F912F9130
:1006B0000F900FBE0F901F9018950F931F938FB739
:1006C000F89400915E0210915F02209160023091D7
:1006D00061028FBFB801C9011F910F9108950F9357
:1006E0001F939FB7F89400916202109163022091CA
:1006F00064023091650286B5A89B06C08F3F21F049
:100700000F5F1F4F2F4F3F4F9FBF322F212F102FB3
:100710000027080F111D211D311D42E0000F111F80
:10072000221F331F4A95D1F7B801C9011F910F91BC
:100730000895CF92DF92EF92FF92CF93DF936B01F8
:100740007C010E946F03EB010EC00E946F036C1BC3
:100750007D0B683E734038F081E0C81AD108E1088B
:10076000F108C851DC4FC114D104E104F10469F768
:10077000DF91CF91FF90EF90DF90CF900895789424
:1007800084B5826084BD84B5816084BD85B5826096
:1007900085BD85B5816085BDEEE6F0E08081816034
:1007A0008083E1E8F0E01082808182608083808134
:1007B00081608083E0E8F0E0808181608083E1EB0C
:1007C000F0E0808184608083E0EBF0E080818160F4
:1007D0008083EAE7F0E080818460808380818260AA
:1007E0008083808181608083808180688083109293
:1007F000C1000895833069F028F48130A1F082307F
:1008000011F514C08630B1F08730C1F08430D9F4CE
:1008100004C0809180008F7703C0809180008F7D1D
:1008200080938000089584B58F7702C084B58F7D52
:1008300084BD08958091B0008F7703C08091B0008F
:100840008F7D8093B0000895CF93DF9390E0FC01FB
:10085000E458FF4F4491FC01E057FF4F84918823F7
:1008600041F190E0880F991FFC01E854FF4F25915A
:100870003491D90182559F4FFC0185919491C82FE5
:10088000D92F9FB7F8948C91611106C040958423AD
:100890008C938881842308C0623041F4242F2095F2
:1008A00082238C938881842B888302C0842B8C9331
:1008B0009FBFDF91CF9108950F931F93CF93DF9345
:1008C0001F92CDB7DEB7282F30E0F901E859FF4F6E
:1008D0008491F901E458FF4F1491F901E057FF4F5B
:1008E00004910023D1F0882321F069830E94FA0348
:1008F0006981E02FF0E0EE0FFF1FE255FF4F859179
:100900009491DC019FB7F8948C91611103C010950C
:10091000812301C0812B8C939FBF0F90DF91CF91DA
:100920001F910F9108958F929F92AF92BF92CF9295
:10093000DF92EF92FF920F931F93CF93DF9390E09C
:10094000FC01E458FF4FD491FC01E057FF4F749134
:10095000611102C0C0E001C0CD2FDA01C901BF7032
:10096000672F70E0660F771F6C557F4F812C912C9D
:100970005401FB010591149110C0C12CD12C7601BA
:10098000C394C80CD91CEA1CFB1C88169906AA063D
:10099000BB0609F44BC046015701F801E081ED2385
:1009A000EC1759F310C0C12CD12C7601C394C80C9C
:1009B000D91CEA1CFB1C88169906AA06BB06B1F1D5
:1009C0004601570103C0FB0105911491F801E08134
:1009D000ED23EC13E8CF88199909AA09BB0920E097
:1009E00030E0A901FB016591749109C0281739070E
:1009F0004A075B07D9F02F5F3F4F4F4F5F4FFB0117
:100A0000E081ED23EC1791F3A5E1B0E00E94EC1E2C
:100A10008B019C01005F1F4F2F4F3F4F84E03695A5
:100A20002795179507958A95D1F703C000E010E048
:100A30009801B801C901DF91CF911F910F91FF90EB
:100A4000EF90DF90CF90BF90AF909F908F900895E0
:100A5000FC0184859585FC01E05CFF4F208131819C
:100A6000FC01EE5BFF4F80819181281B390B2F73B6
:100A70003327C9010895FC0184859585FC01E05C5C
:100A8000FF4F40815181FC01EE5BFF4F208131819E
:100A90004217530741F00190F081E02DE80FF91F54
:100AA000208130E002C02FEF3FEFC9010895FC0123
:100AB00084859585FC01E05CFF4F40815181FC01FC
:100AC000EE5BFF4F208131814217530781F0A081F7
:100AD000B181A80FB91F8C91208131812F5F3F4FC9
:100AE0002F73332731832083282F30E002C02FEF6C
:100AF0003FEFC9010895FC0186859785FC01E05C04
:100B0000FF4FDC01AE5BBF4F408151812D913C9185
:100B1000119742175307C1F70895CF93DF93FC0154
:100B200086859785DC01A05CBF4F2D913C91119784
:100B30002F5F3F4F2F733327EC01CE5BDF4F488190
:100B4000598124173507D9F30D90BC91A02DA80F1A
:100B5000B91F6C93A685B785A05CBF4F11963C93D7
:100B60002E93A689B7892C9181E090E0058C02C074
:100B7000880F991F0A94E2F7282B2C9381E090E0CC
:100B8000DF91CF91089508951F920F920FB60F92A3
:100B900011242F933F934F938F939F93EF93FF9342
:100BA0004091C60080910A0390910B0301968F73C8
:100BB000992720910C0330910D038217930759F068
:100BC000E0910A03F0910B03E653FD4F40839093AD
:100BD0000B0380930A03FF91EF919F918F914F91A7
:100BE0003F912F910F900FBE0F901F90189587E6A1
:100BF00092E00E942805892B11F00C94C3050895FA
:100C00001F920F920FB60F9211242F933F938F9341
:100C10009F93EF93FF932091C6023091C70280917A
:100C2000C8029091C9022817390731F48091C10098
:100C30008F7D8093C10014C0E091C802F091C90279
:100C4000EA57FD4F20818091C8029091C902019618
:100C50008F7399279093C9028093C8022093C6008E
:100C6000FF91EF919F918F913F912F910F900FBE28
:100C70000F901F901895CF92DF92EF92FF92CF9333
:100C8000DF93EC016A017B01411581EE5807610594
:100C90007105F9F0EC89FD8981E090E00E8C02C0CD
:100CA000880F991F0A94E2F7808360E079E08DE372
:100CB00090E0A70196010E94031F215031094109CC
:100CC00051095695479537952795211580E13807A5
:100CD00098F0EC89FD89108260E874E88EE190E07C
:100CE000A70196010E94031F2150310941095109B2
:100CF0005695479537952795E889F9893083EA898C
:100D0000FB892083EE89FF89408181E090E09C018E
:100D10000A8C02C0220F331F0A94E2F7422B408351
:100D2000EE89FF8940819C010B8C02C0220F331F8A
:100D30000A94E2F7422B4083EE89FF8940819C01AF
:100D40000C8C02C0220F331F0A94E2F7422B40831F
:100D5000EE89FF8920810D8C02C0880F991F0A94AB
:100D6000E2F7809582238083DF91CF91FF90EF900F
:100D7000DF90CF90089510926A021092690288EE77
:100D800093E0A0E0B0E080936B0290936C02A0939C
:100D90006D02B0936E028AEB91E0909368028093AB
:100DA00067028AEC92E0909374028093730286E863
:100DB00092E0909376028093750285EC90E0909398
:100DC00078028093770284EC90E090937A0280938B
:100DD000790280EC90E090937C0280937B0281EC1E
:100DE00090E090937E0280937D0286EC90E0909359
:100DF000800280937F0284E08093810283E080936D
:100E0000820287E08093830285E08093840281E000
:100E10008093850208950E94BF030E949800C7EF47
:100E2000D5E00E943F012097E1F30E94F705F9CF3A
:100E3000CF92DF92EF92FF920F931F93CF93DF93A6
:100E40006C01EB017A01E60EF71E00E010E00BC02A
:100E50006991D601ED91FC910190F081E02DC601E0
:100E60000995080F191FCE15DF0591F7C801DF910D
:100E7000CF911F910F91FF90EF90DF90CF90089549
:100E8000DB010D900020E9F7AD0141505109461BEF
:100E9000570BDC01ED91FC910280F381E02D099468
:100EA0000C944007DC01ED91FC910190F081E02D64
:100EB00009940F931F93CF93DF93EC016DE00E9491
:100EC00052078C016AE0CE010E9452079C01200F5C
:100ED000311FC901DF91CF911F910F9108950F9399
:100EE0001F93CF93DF93EC010E9440078C01CE014A
:100EF0000E9459079801280F391FC901DF91CF912E
:100F00001F910F9108954F925F926F927F929F92DF
:100F1000AF92BF92CF92DF92EF92FF920F931F9307
:100F2000CF93DF93CDB7DEB7A1970FB6F894DEBFAE
:100F30000FBECDBF5C016A017B01922E19A281E038
:100F4000821710F08AE0982E8E010F5D1F4F492CFA
:100F5000512C612C712CC701B601A30192010E9492
:100F6000031F8C2D929E80191124015011098A3083
:100F700010F4805D01C0895CF801808369017A0109
:100F8000C114D104E104F10431F7B801C5010E9494
:100F90004007A1960FB6F894DEBF0FBECDBFDF911C
:100FA000CF911F910F91FF90EF90DF90CF90BF9066
:100FB000AF909F907F906F905F904F900895211514
:100FC000310541F4DC01ED91FC910190F081E02DBF
:100FD000642F09940C9483079A01462F50E060E037
:100FE00070E00C94DF070F931F93CF93DF93EC0116
:100FF0009A01462F50E060E070E00E94DF078C010C
:10100000CE010E9459079801280F391FC901DF91AD
:10101000CF911F910F910895CF92DF92EF92FF929F
:101020000F931F93CF93DF93EC016A017B0121158E
:10103000310579F4E881F9810190F081E02D642F88
:10104000DF91CF911F910F91FF90EF90DF90CF90A4
:1010500009942A30310519F477FD0EC02AE0B70152
:10106000A601CE01DF91CF911F910F91FF90EF90DC
:10107000DF90CF900C9483076DE20E9452078C01A1
:1010800044275527BA014C195D096E097F092AE0EA
:10109000CE010E948307080F191FC801DF91CF916D
:1010A0001F910F91FF90EF90DF90CF9008959A01DC
:1010B000AB01662757FD6095762F0C940C08CF93F3
:1010C000DF931F92CDB7DEB76983DC01ED91FC9110
:1010D0000280F381E02D41E050E0BE016F5F7F4F61
:1010E00009950F90DF91CF910895FC01818D928D2C
:1010F000009711F00C9481110895CF93DF93EC01C8
:10110000898D9A8D009709F40CC0FC01138212821C
:101110000E94FF139C01E98DFA8D82819381892BB6
:1011200031F081E090E09B838A8320E030E0C901C8
:10113000DF91CF910895CF93DF931F92CDB7DEB7A4
:1011400041E050E0BE016F5F7F4F0E947F0F01972B
:1011500019F4298130E002C02FEF3FEFC9010F9051
:10116000DF91CF910895FC01818D928D009711F050
:101170000C949B088FEF9FEF08950F931F93CF93CD
:10118000DF938C01FC01818D928D0097B1F00E945C
:101190009B08EC018F3FFFEF9F0789F0F801818DDD
:1011A000928DFC01428553856485758541505109B6
:1011B000610971090E94E61002C0C0E0D0E0CE01D2
:1011C000DF91CF911F910F910895CF92DF92EF920F
:1011D000FF920F931F93CF93DF93EC017B016A0182
:1011E0001B821A8208EE13E020E030E00C831D839E
:1011F0002E833F838AEC91E0998388838DE190E090
:101200000E942B1FDC019A8F898F009771F08DE16E
:10121000F70101900D928A95E1F74CE050E0B6019C
:10122000CE010C960E947A20188EDF91CF911F91EB
:101230000F91FF90EF90DF90CF900895FC01138203
:10124000128248EE53E060E070E044835583668389
:1012500077838AEC91E091838083128E118E1486BD
:1012600008952AEC31E0FC013183208308950F9327
:101270001F93DC015996ED91FC915A97309729F014
:10128000028513852485358503C00FEF1FEF980174
:10129000B801C9011F910F9108950F931F93DC01AD
:1012A0005996ED91FC915A97309729F0038914894A
:1012B0002589368903C000E010E09801B801C90112
:1012C0001F910F910895CF92DF92EF92FF92CF93EB
:1012D000DF93EC01898D9A8D892BE1F0CE010E947C
:1012E0004D096B017C01CE010E943709A7019601CF
:1012F000261B370B480B590BDA01C901811530E861
:101300009307A105B10520F08FEF9FE7A0E0B0E0C3
:101310009C0102C020E030E0C901DF91CF91FF9035
:10132000EF90DF90CF900895CF93DF93EC01898DFC
:101330009A8D009741F00E94C811898D9A8D0E9464
:10134000C61F1A8E198EDF91CF9108950F931F93A8
:10135000CF93DF93EC01462F61E00E943D0C811199
:1013600001C012C08E01045F1F4F41E0BE01C801E1
:101370000E945019882351F0B801CE018A960E942C
:101380002F0F91E081110AC090E008C040E0BE013B
:10139000C8010E9450198823B9F3EECF892FDF913D
:1013A000CF911F910F910895FC01DB0112968D9151
:1013B0009C911397938382838CED91E0918380833A
:1013C00014968C911497848315968C911597858328
:1013D00016964D915D916D917C9119974683578337
:1013E000608771871A964D915D916D917C911D97E3
:1013F00042875387648775871E964D915D916D91E5
:101400007C91519746875787608B718B52968C9150
:101410005297828B53964D915D916D917C91569729
:10142000438B548B658B768B57964D915D916D9167
:101430007C915A97478B508F618F728F5B968D91FD
:101440009C915C97948F838F08954F925F926F92D7
:101450007F928F929F92AF92BF92CF92DF92EF9244
:10146000FF920F931F93CF93DF93CDB7DEB7C7548F
:10147000D1090FB6F894DEBF0FBECDBF6C014A0193
:101480003901665D7F4F5E018EE1A80EB11CC5017A
:101490000E94D4091C821B828CED91E09A8389837F
:1014A0001E828401EE24E394F12CEC0EFD1E5A2CD6
:1014B0004B2C3CC0F80120812F3219F40F5F1F4FD5
:1014C00035C0801B8D3008F08CE0A82EB12CA50112
:1014D000B801CE01CB960E947A20EBE3F0E0EC0F4E
:1014E000FD1FEA0DFB1D1082C7010E94C81121E0FB
:1014F000AE01455C5F4F652D742DC7010E9402133C
:10150000811109C0F601138212828CED91E0918362
:10151000808315821DC00A0D1B1D852D942D0E94F0
:10152000C811C2015E2C4F2CE92EF82E6FE270E03C
:10153000C8010E946F20009709F0BCCF0819190953
:10154000F30111830083652D742DC6010E94D40917
:10155000C601C95BDF4F0FB6F894DEBF0FBECDBF2B
:10156000DF91CF911F910F91FF90EF90DF90CF907F
:10157000BF90AF909F908F907F906F905F904F90B3
:101580000895BF92CF92DF92EF92FF920F931F9335
:10159000CF93DF93CDB7DEB7C955D1090FB6F89415
:1015A000DEBF0FBECDBF7C016A01B22E9E01285A5C
:1015B0003F4FCE01CB960E94250A6A960EAD1FAD15
:1015C0006A970C0D1D1DF801808181110AC0BE01B2
:1015D000655C7F4FCE0101960E94D40946ED51E033
:1015E0003EC019A218A28CED91E09F8F8E8F1BA296
:1015F00021968FAD2197811104C0C7010E941E0959
:1016000034C082502B2DA801823048F468E373E087
:10161000CE014E960E94021381110EC0EECFBE0184
:10162000655C7F4FCE014E960E940213882329F3FA
:10163000CE01CB960E94C8118B2D867041F049A92E
:101640005AA96BA97CA9CE014E960E94E610BE0154
:10165000625E7F4FCE0101960E94D409A801BE01AF
:101660006F5F7F4FC7010E94E508C701C75ADF4F70
:101670000FB6F894DEBF0FBECDBFDF91CF911F91A3
:101680000F91FF90EF90DF90CF90BF900895109250
:10169000130310921403109217031092190382E09F
:1016A00090E0A0E0B0E080931A0390931B03A09316
:1016B0001C03B0931D031092310310923B03109250
:1016C0003A038CED91E090933903809338031092A4
:1016D0003D0308958EBD0DB407FEFDCF08958FEF35
:1016E0000E946A0B8EB5089561E0FC0184810C9420
:1016F0005C0460E0FC0184810C945C04CF93DF9374
:10170000EC018E818823C9F08FEF8EBD4FEF04C0AE
:101710000DB407FEFDCF4EBD8F8198859C012F5FD4
:101720003F4F38872F838130924090F30DB407FEEE
:10173000FDCFCE010E94740B1E82DF91CF910895E0
:10174000673028F026E1FC01258380E008958DB5FF
:1017500060FD02C0663011F48E7F01C081608DBDD6
:101760008CB58C7F8CBD9CB562FF02C082E001C04D
:1017700080E066956170692B682B6CBD81E00895EF
:101780000F931F93CF93DF93EB010E945D038B01B7
:101790000E946F0B8F3F49F00E945D03601B710B2D
:1017A0006C177D07A8F380E001C081E0DF91CF9145
:1017B0001F910F910895CF92DF92FF920F931F9385
:1017C000CF93DF9300D000D0CDB7DEB76C01F62EFB
:1017D00029833A834B835C830E947E0BC6010E945F
:1017E000790B6CE271E0C6010E94C00B8F2D806402
:1017F0000E946A0B08E110E05C814B813A812981EB
:10180000DA01C901002E04C0B695A7959795879572
:101810000A94D2F729833A834B835C830E946A0B34
:101820000850110929813A814B815C81083F8FEF73
:10183000180731F7FF2029F0E8E0FE1621F08FEFBE
:1018400003C085E901C087E80E946A0B10E00E948E
:101850006F0BF601828787FF04C01F3F11F01F5FE7
:10186000F6CF0F900F900F900F90DF91CF911F91B7
:101870000F91FF90DF90CF900895BF92CF92DF92AB
:10188000EF92FF920F931F93CF93DF93EC01B62E4D
:101890001B8619861E821D824C830E945D038B016C
:1018A00061E08C810E942404CE010E94740B60E0F0
:1018B0008CE00E94240461E08BE00E94240461E03B
:1018C0008DE00E94240461E08AE00E94240461E02B
:1018D0008AE00E945C0483E58CBD8DB58E7F8DBD52
:1018E0002AE0F22E8FEF0E946A0BFA94D9F7CE010C
:1018F0000E94790B09C00E945D03601B710B613D62
:10190000774010F081E058C020E030E0A90160E0AD
:10191000CE010E94DB0BF82E8A8781E0F812EBCF14
:101920002AEA31E040E050E068E0CE010E94DB0BA3
:1019300082FF02C0FB860DC094E0F92E0E946F0B5F
:101940008A87FA94D9F78A3A11F082E035C082E0AA
:101950008B878B85823031F4C12CD12CE12C80E433
:10196000F82E0DC0C12CD12C760109C00E945D0358
:10197000601B710B613D774010F088E01DC020E0D6
:1019800030E0A90167E3CE010E94DB0BA7019601BD
:1019900069E2CE010E94DB0B8A878111E7CF8B853C
:1019A0008230C9F420E030E0A9016AE3CE010E9450
:1019B000DB0B882319F086E08D831DC00E946F0B1E
:1019C000807C803C11F483E08B870E946F0B0E9427
:1019D0006F0B0E946F0BCE010E94740B6B2DCE011A
:1019E000DF91CF911F910F91FF90EF90DF90CF90FB
:1019F000BF900C94A00BCE010E94740B80E0DF918D
:101A0000CF911F910F91FF90EF90DF90CF90BF90FB
:101A100008950F931F93CF93DF93EC010E945D0312
:101A20008B0109C00E945D03601B710B6D32714018
:101A300010F08FE008C00E946F0B8A878F3F91F3F0
:101A40008E3F39F08DE08D83CE010E94740B80E0D3
:101A500001C081E0DF91CF911F910F910895CF9246
:101A6000DF92EF92FF920F931F93CF93DF93EC01DE
:101A700069010115110509F475C0C801820F931F92
:101A80008130924008F070C08E81882371F0888187
:101A90009981AA81BB81481759076A077B0729F4F6
:101AA0008F819885C816D90618F5488359836A83AB
:101AB0007B838B85833039F0B9E0440F551F661F57
:101AC000771FBA95D1F79A01AB0161E1CE010E946F
:101AD000DB0B882319F083E08D8346C0CE010E9482
:101AE000090D882309F440C018861F8281E08E8387
:101AF0008FEF8EBD2FEF09C00DB407FEFDCF2EBDB9
:101B00008F819885019698878F838F8198858C1512
:101B10009D0590F3C8010197F7014FEF06C00DB482
:101B200007FEFDCF2EB521934EBD9F012E193F0913
:101B300028173907A0F30DB407FEFDCF2EB5F70126
:101B4000E80FF91F20838F819885800F911F988758
:101B50008F832985222319F08115924018F0CE0138
:101B60000E947E0B81E004C0CE010E94740B80E0D5
:101B7000DF91CF911F910F91FF90EF90DF90CF9069
:101B80000895EF92FF920F931F93790100E012E006
:101B900020E030E00E942F0D1F910F91FF90EF90F9
:101BA0000895CF93DF93EC016EBD20E030E00DB4DB
:101BB00007FEFDCFFA01E20FF31F80818EBD0DB449
:101BC00007FEFDCF81818EBD2E5F3F4F211582E044
:101BD000380769F70DB407FEFDCF8FEF0E946A0B3F
:101BE0008FEF0E946A0B0E946F0B8A878F7185307E
:101BF00039F081E18D83CE010E94740B80E001C039
:101C000081E0DF91CF9108950F931F93CF93DF93DE
:101C1000EC018901411551056105710511F482E15D
:101C200038C08B85833039F089E0440F551F661F1B
:101C3000771F8A95D1F79A01AB0168E1CE010E9426
:101C4000DB0B882311F084E024C0A8016EEFCE01E5
:101C50000E94D10D8823B9F068E572E0CE010E94A0
:101C6000C00B811102C085E114C020E030E0A90161
:101C70006DE0CE010E94DB0B81110AC00E946F0B48
:101C8000811106C008C0CE010E94740B80E007C01D
:101C900084E18D83F8CFCE010E94740B81E0DF9147
:101CA000CF911F910F910895CF93DF93EC019C0189
:101CB0002A5F3F4F41E050E060E070E08B8D9C8DEB
:101CC0000E94E3178823A1F04F89588D698D7A8D82
:101CD000452B462B472B71F44E815F8168857985B2
:101CE0004F8B588F698F7A8F8C8180688C8302C06C
:101CF00080E001C081E0DF91CF910895CF92DF9223
:101D0000EF92FF921F93CF93DF93EC010E94540E4A
:101D1000811102C080E04AC0EB8DFC8DCE80DF8057
:101D2000E884F98482E0C81AD108E108F108058442
:101D300004C0CC0CDD1CEE1CFF1C0A94D2F7868577
:101D40009785A089B189C80ED91EEA1EFB1E148191
:101D500081E0C81AD108E108F1080BC0C701B6013B
:101D6000610F711D811D911D0E942C16882391F217
:101D700011501111F3CFEB8DFC8D80E092E0A0E0CB
:101D8000B0E0058404C0880F991FAA1FBB1F0A94E6
:101D9000D2F74B895C896D897E89480F591F6A1F6C
:101DA0007B1F4B8B5C8B6D8B7E8B81E0DF91CF91AA
:101DB0001F91FF90EF90DF90CF900895CF93DF9326
:101DC000EC01462F6E857F85888999890E94F115DF
:101DD000882341F02A8980E2289F90011124205A0B
:101DE0003C4F02C020E030E0C901DF91CF9108955F
:101DF000FB012BE030E231932150E9F750E0A7E0FE
:101E000022C04E3241F4AA3041F158E0AAE01BC092
:101E1000E41303C022C022EC30E0F9012F5F3F4FF2
:101E2000E491E111F5CFA517C0F04132B0F04F3782
:101E3000A0F4FB01E50FF11D242F21562A3108F4EF
:101E4000405240835F5FFC014191CF014111D9CFE6
:101E500081E0FB019081903209F480E008950F93B6
:101E60001F93CF93DF93EC018B018D81882311F0B9
:101E700080E040C0FB0187898031B1F482E08D832E
:101E80001F8A188E198E1A8E408D518D60E070E079
:101E900085E0440F551F661F771F8A95D1F74B8B3E
:101EA0005C8B6D8B7E8B15C0803211F783E08D8348
:101EB000FB01428D538D648D758D4F8B588F698FCB
:101EC0007A8F9E012D5E3F4FC8010E94D71688234E
:101ED00079F21C8F0B8F81E08C831E821F82188603
:101EE00019861A861B861C861D861E861F86188AE2
:101EF000198A1A8ADF91CF911F910F9108952F921D
:101F00003F924F925F926F927F928F929F92AF9289
:101F1000BF92CF92DF92EF92FF920F931F93CF93D6
:101F2000DF93EC01FB014A018D81811103C02FEF8A
:101F30003FEFE3C08C8180FFFACFB3C04A01881A1B
:101F4000990A24016F011E0126E0220E311CA3C054
:101F50004A855B856C857D85DB01CA019170AA2766
:101F6000BB275C01ED818A019B01F9E0369527953D
:101F700017950795FA95D1F78B8D9C8DE23051F42A
:101F8000FC01628D738D848D958D600F711F821F92
:101F9000931F3EC0FC0174807A947022A114B10496
:101FA000C9F4711017C0452B462B472B49F48F8974
:101FB000988DA98DBA8D8E839F83A887B9870AC013
:101FC0004E815F816885798591010E945216882330
:101FD00009F4ADCFEB8DFC8D6E817F81888599856D
:101FE0006250710981099109058404C0660F771F49
:101FF000881F991F0A94D2F7068517852089318991
:10200000600F711F821F931F670D711D811D911D30
:1020100020E032E02A193B0932012415350508F485
:1020200039012C8126FD05C06114F2E07F0609F01C
:102030005EC0009120011091210120912201309178
:102040002301601771078207930709F042C04FC050
:10205000C60CD71C12C0C501805A9C4F9C01260D8E
:10206000371DFC01D60102C041914D93E217F307E1
:10207000D9F7E81BF90BCE0EDF1E8A859B85AC8550
:10208000BD85860D971DA11DB11D8A879B87AC87D5
:10209000BD87461857084114510409F059CF9401DF
:1020A0002CC04B895C896D897E898A859B85AC852E
:1020B000BD852401612C712C8A019B01081B190B21
:1020C0002A0B3B0B041515052605370508F436CFFA
:1020D00038CF760183019501AB01BC0180915E038D
:1020E00090915F030E942F0D8111B2CF20CF40E06D
:1020F0000E94F1158111AFCF1ACFC901DF91CF91A5
:102100001F910F91FF90EF90DF90CF90BF90AF9015
:102110009F908F907F906F905F904F903F902F9007
:102120000895CF92DF92EF92FF920F931F93CF9378
:10213000DF931F92CDB7DEB78C01FC018581823021
:1021400018F420E030E037C0F801C284D384E4847E
:10215000F584B5E0F694E794D794C794BA95D1F78F
:10216000FFE0CF22DD24EE24FF2441E050E0BE0159
:102170006F5F7F4FC8010E947F0F019719F489811B
:1021800090E002C08FEF9FEF0196D9F2F8014285EF
:10219000538564857585415E5F4F6F4F7F4F4287E2
:1021A0005387648775879601A5E0220F331FAA9590
:1021B000E1F7205A3C4FC9010F90DF91CF911F9159
:1021C0000F91FF90EF90DF90CF9008958F929F92A4
:1021D000AF92BF92CF92DF92EF92FF920F931F9335
:1021E000CF93DF93EC014A015B012D81222309F497
:1021F00075C08B899C89AD89BE8984179507A60710
:10220000B70708F46BC06CC081149104A104B10439
:1022100049F41E821F82188619861A861B861C8620
:102220001D865AC04A855B856C857D85EB8DFC8D4E
:10223000258530E0275F3F4FDB01CA010197A109E7
:10224000B109022E04C0B695A795979587950A9473
:10225000D2F7CC24CA94DC2C7601C80CD91CEA1C19
:10226000FB1C04C0F694E794D794C7942A95D2F740
:10227000C816D906EA06FB0620F0452B462B472B4D
:1022800049F48F89988DA98DBA8D8E839F83A887F5
:10229000B98716C0C81AD90AEA0AFB0A11C04E81CA
:1022A0005F816885798598018B8D9C8D0E9452167F
:1022B00091E0C91AD108E108F108811104C00EC0EB
:1022C0008E010A5F1F4FC114D104E104F10439F7F4
:1022D0008A869B86AC86BD8681E006C080E004C00D
:1022E000223009F091CFF4CFDF91CF911F910F9160
:1022F000FF90EF90DF90CF90BF90AF909F908F9026
:1023000008950F931F93CF93DF93EC018D81882362
:10231000C9F18C8187FF30C061E0CE010E94DE0EE2
:102320008C01009779F18D81823048F44B895C896A
:102330006D897E89F801448F558F668F778F4F891D
:10234000588D698D7A8DF801538F428F758B648B10
:10235000E0915703F0915803309759F0B8016A5E45
:102360007F4FC80148960995F801808D918D938B18
:10237000828B8C818F778C83DF91CF911F910F910E
:102380000C94B61580E0DF91CF911F910F910895C5
:10239000CF93DF93EC010E948111882319F01D82F5
:1023A00081E001C080E0DF91CF9108954F925F926C
:1023B0006F927F92AF92BF92CF92DF92EF92FF9295
:1023C0000F931F93CF93DF9300D000D0CDB7DEB72C
:1023D0005C016A017B01FC018581813009F083C0C9
:1023E000848181FF80C081C0892B8A2B8B2B09F4CB
:1023F00078C0F5014284538464847584B701A601D2
:10240000C5010E94E610811101C06DC0F501838DE8
:10241000948DC114D104E104F10479F44789508DFD
:10242000618D728D0E94FA18882309F45CC0F50151
:10243000178A108E118E128E3AC0F501468157818F
:10244000608571859E012F5F3F4F0E945216882341
:1024500009F449C049815A816B817C81F501838DE2
:10246000948DFC012789203129F408EF1FEF20E02B
:1024700030E004C008EF1FEF2FEF3FE04017510797
:1024800062077307A0F40E94FA18882361F1F5012E
:1024900046815781608571850FEF1FEF2FEF3FE079
:1024A000838D948D0E944217811101C01CC0F501DB
:1024B000C38AD48AE58AF68A848180688483C501C8
:1024C0000E948111882379F0B701A6014C145D04A4
:1024D0006E047F0410F4B301A201C5010E94E6104E
:1024E00010C081E00EC080E00CC0F50183899489A2
:1024F000A589B68984179507A607B70708F074CF92
:10250000F2CF0F900F900F900F90DF91CF911F910E
:102510000F91FF90EF90DF90CF90BF90AF907F90A2
:102520006F905F904F900895FF920F931F93CF93FA
:10253000DF93EC01F42E80E2689FF0011124E05A51
:10254000FC4F8385817129F0842F827411F080E023
:1025500053C06A8B8091200190912101A0912201AA
:10256000B09123018E879F87A88BB98B44895589A9
:1025700060E070E0BA0155274427828D938DA0E07A
:10258000B0E0482B592B6A2B7B2B4F8B588F698FD0
:102590007A8F8385887151F4048D158D268D378D42
:1025A0000B8B1C8B2D8B3E8B81E00CC0803179F620
:1025B0009E012D5E3F4F8B8D9C8D0E94D7168823E8
:1025C00031F284E08D838F2D8F708C831E821F8269
:1025D000188619861A861B861C861D86F6FE0BC079
:1025E00040E050E0BA01CE01DF91CF911F910F91F1
:1025F000FF900C94D61181E0DF91CF911F910F9144
:10260000FF9008955F926F927F928F929F92AF9208
:10261000BF92CF92DF92EF92FF920F931F93CF93CF
:10262000DF93CDB7DEB72B970FB6F894DEBF0FBEA2
:10263000CDBF8C015B01CA01922EF80125812111C9
:10264000C7C0EE24E394F12CEC0EFD1EB7010E94EE
:10265000F80E811101C0BCC0F501838D948DF80185
:10266000948F838FF5011682178210861186128649
:10267000138614861586812C7E2C6F2C41C035E084
:10268000F694E794D794C7943A95D1F7FFE0CF2218
:10269000DD24EE24FF245C2CC5010E9491100097DC
:1026A00009F496C0FC012081222311F0253EB9F4E3
:1026B00081100EC0F801528A4091200150912101F1
:1026C000609122017091230146875787608B718B3F
:1026D000FC01808188248394882309F111C04BE098
:1026E00050E0BC01872D962D0E946220009741F496
:1026F000892D8073803309F46BC0492D6C2D64C023
:10270000F501C284D384E484F58483899489A589FE
:10271000B689C816D906EA06FB0608F4B0CF892D9B
:102720008271823109F054C0882041F061E0C80113
:102730000E94DE0E7C01009791F44AC0F50185816C
:10274000823009F445C0C5010E947E0E882309F439
:102750003FC0F801128A20E6E22E23E0F22E80E24A
:10276000F70111928A95E9F78BE0FE013196D701C6
:1027700001900D928A95E1F7E0915703F09158038B
:10278000309739F0B701625F7F4FC70140960995D6
:1027900009C081E298E2F701918B808B80E098E09C
:1027A00097878687F70180899189938B828B918F98
:1027B000808F86859785978B868B0E94B615882398
:1027C00039F0492DF8016289C8010E94941201C0B4
:1027D00080E02B960FB6F894DEBF0FBECDBFDF9121
:1027E000CF911F910F91FF90EF90DF90CF90BF900E
:1027F000AF909F908F907F906F905F9008952F92F1
:102800003F924F925F926F927F928F929F92AF9280
:10281000BF92CF92DF92EF92FF920F931F93CF93CD
:10282000DF9300D000D01F92CDB7DEB78C01962E7B
:10283000872E6A01DC0115968C91813009F05FC109
:10284000F801848181FF5BC164C1D80153964D9129
:102850005D916D917C9156971A968D919D910D90F9
:10286000BC91A02D84179507A607B70721F4560140
:10287000E92CF82C0CC1C8010E94E610882309F449
:102880003EC1F5CFF801838D948DDC011496BC9187
:10289000B150B301A201A9E0769567955795479588
:1028A000AA95D1F7B423BD83B301A2015170662765
:1028B00077273A01B11141C041155105F1F5468123
:1028C000578160857185411551056105710549F490
:1028D0008789908DA18DB28D0097A105B10541F535
:1028E00021C09E012F5F3F4F0E945216811101C0EF
:1028F0000DC189819A81AB81BC81F801238D348D12
:10290000F9012789203129F448EF5FEF60E070E09A
:1029100004C048EF5FEF6FEF7FE084179507A607CD
:10292000B70730F0C8010E94540E811106C0E7C0FD
:10293000F80186839783A087B18780E092E08619AB
:10294000970945018A159B0508F44C01D8015B964F
:10295000ED91FC915C9716962D903D904D905C907A
:102960001997B2E02B1A310841085108058404C0B8
:10297000220C331C441C551C0A94D2F7868597857B
:10298000A089B189280E391E4A1E5B1EED812E0ECC
:10299000311C411C511C8114F2E09F0639F58091D5
:1029A000200190912101A0912201B0912301821573
:1029B0009305A405B50559F48FEF9FEFDC018093D3
:1029C000200190932101A0932201B093230197014C
:1029D000B201A10180915E0390915F030E94040EF9
:1029E000882309F48CC09EEFF91A42C06114710467
:1029F00029F5D8011A964D915D916D917C911D97A5
:102A000053968D919D910D90BC91A02D481759071B
:102A10006A077B0798F00E94B615882309F46FC0F7
:102A200020922001309221014092220150922301F4
:102A300080915D03816080935D0308C041E0C20125
:102A4000B1010E94F115882309F459C0C301805ACD
:102A50009C4F9C01280D391DD701FC0102C04D91EE
:102A60004193E217F307D9F7E81BF90BEE0EFF1EAF
:102A7000A818B908F80182859385A485B585880DC5
:102A8000991DA11DB11D82879387A487B587D801A1
:102A90001A964D905D906D907C901D97A114B10495
:102AA00009F0F0CE53968D919D910D90BC91A02D83
:102AB00084159505A605B70548F4F801438A548A9C
:102AC000658A768A84818068848310C080915703E8
:102AD00090915803892B51F0C114D10439F0D801D9
:102AE00014968C911497806814968C93F8018481C5
:102AF00083FF12C0C8010E94811181110DC081E0C5
:102B000090E0D80113969C938E931297C12CD12CF0
:102B100003C082FD9ACEABCEC6010F900F900F90EE
:102B20000F900F90DF91CF911F910F91FF90EF9039
:102B3000DF90CF90BF90AF909F908F907F906F90DD
:102B40005F904F903F902F900895CF93DF931F9207
:102B5000CDB7DEB7698341E050E0BE016F5F7F4FC4
:102B60000E94FF130F90DF91CF91089580915D0334
:102B7000882399F140912001509121016091220117
:102B80007091230120E633E080915E0390915F0312
:102B90000E94040E882319F14091590350915A0361
:102BA00060915B0370915C034115510561057105EE
:102BB00091F020E633E080915E0390915F030E94E4
:102BC000040E882361F01092590310925A03109258
:102BD0005B0310925C0310925D0381E0089580E036
:102BE0000895CF92DF92EF92FF92CF936B017C0119
:102BF000C42F8091200190912101A0912201B091D8
:102C000023018C159D05AE05BF05D1F00E94B615B8
:102C1000811102C080E01AC020E633E0B701A601AE
:102C200080915E0390915F030E94C10D882391F310
:102C3000C0922001D0922101E0922201F092230162
:102C400080915D038C2B80935D0381E0CF91FF9099
:102C5000EF90DF90CF900895CF92DF92EF92FF92A6
:102C60006B017C010E94B6158823B1F0E0E6F3E029
:102C7000119285E0E036F807D9F7C0922001D09292
:102C80002101E0922201F092230180915D03816095
:102C900080935D0381E001C080E0FF90EF90DF90C2
:102CA000CF9008958F929F92AF92BF92CF92DF9272
:102CB000EF92FF920F931F93CF93DF938C016A01E2
:102CC0007B01E901FC0181859285A385B48501968C
:102CD000A11DB11D84179507A607B70710F480E062
:102CE00059C0F8014389548965897689878980317B
:102CF00029F4BB27AF2D9E2D8D2D09C0D701C6010C
:102D000027E0B695A795979587952A95D1F74C0119
:102D10005D01840E951EA61EB71EC501B4018090EC
:102D2000200190902101A0902201B090230168150C
:102D300079058A059B0529F4F80187898031A1F47A
:102D400006C040E00E94F1158111F6CFC8CFDD2406
:102D5000EE24FF24F601EE0FFF1FE05AFC4F8081A6
:102D60009181A0E0B0E011C0E894C7F8DD24EE2422
:102D7000FF24F601EE0FFF1FEE0FFF1FE05AFC4F7E
:102D800080819181A281B381BF7088839983AA8356
:102D9000BB8381E0DF91CF911F910F91FF90EF9066
:102DA000DF90CF90BF90AF909F908F9008954F92FB
:102DB0005F926F927F92AF92BF92CF92DF92EF922B
:102DC000FF920F931F93CF93DF9300D000D0CDB726
:102DD000DEB78C0149835A836B837C835901C12CF4
:102DE000D12C7601412C42E0542E612C712C49816A
:102DF0005A816B817C819E012F5F3F4FC8010E94E9
:102E00005216882359F1D301C201F801058404C088
:102E1000880F991FAA1FBB1F0A94D2F7C80ED91E8C
:102E2000EA1EFB1E49815A816B817C818789803132
:102E300029F488EF9FEFA0E0B0E004C088EF9FEF97
:102E4000AFEFBFE0481759076A077B0780F2F5012B
:102E5000C082D182E282F38281E001C080E00F90E3
:102E60000F900F900F90DF91CF911F910F91FF90D6
:102E7000EF90DF90CF90BF90AF907F906F905F907A
:102E80004F9008954F925F926F927F928F929F9290
:102E9000AF92BF92CF92DF92EF92FF920F931F9368
:102EA000CF93DF93EC016A017B01280139014230A5
:102EB00051056105710508F474C089859A85AB8553
:102EC000BC850196A11DB11D84179507A607B707FC
:102ED00008F467C08B889C88AD88BE888F89803154
:102EE00029F4BB27A72F962F852F09C0DB01CA0124
:102EF00077E0B695A795979587957A95D1F7880E3F
:102F0000991EAA1EBB1E8091200190912101A091C3
:102F10002201B091230188169906AA06BB0621F466
:102F20008F898031A1F408C040E0C501B4010E943E
:102F3000F1158111F5CF35C0DD24EE24FF24F60113
:102F4000EE0FFF1FE05AFC4F5182408210C0E89400
:102F5000C7F8DD24EE24FF24F601EE0FFF1FEE0F6D
:102F6000FF1FE05AFC4F408251826282738280913F
:102F70005D03816080935D038A89823080F08D815A
:102F80009E81AF81B885880D991DAA1DBB1D8093B8
:102F9000590390935A03A0935B03B0935C0381E0C1
:102FA00001C080E0DF91CF911F910F91FF90EF90D2
:102FB000DF90CF90BF90AF909F908F907F906F9059
:102FC0005F904F9008952F923F924F925F926F9231
:102FD0007F929F92AF92BF92CF92DF92EF92FF9239
:102FE0000F931F93CF93DF93CDB7DEB760970FB6E4
:102FF000F894DEBF0FBECDBF5C014D875E876F8743
:10300000788B1901D9014D905D906D907C904114A1
:1030100051046104710431F0BFEF4B1A5B0A6B0A73
:103020007B0A10C0FC01408051806280738099242B
:1030300093942D853E854F85588921303105410572
:10304000510509F0912CD50119968D919D910D9006
:10305000BC91A02D0196A11DB11D89879A87AB87D0
:10306000BC87730162011D821E821F821886F501D2
:1030700081859285A385B4852D813E814F815885B8
:10308000281739074A075B0708F056C089859A85D3
:10309000AB85BC858C159D05AE05BF0550F4F2E0EF
:1030A000CF2ED12CE12CF12CA2E04A2E512C612CF8
:1030B000712C9E012F5F3F4FB701A601C5010E94F1
:1030C00052168823C9F149815A816B817C81D701CD
:1030D000C6010196A11DB11D452B462B472B19F0AA
:1030E0002C013D010DC084199509A609B7092D854C
:1030F0003E854F85588982179307A407B50789F045
:103100008D819E81AF81B8850196A11DB11D8D83F2
:103110009E83AF83B8879FEFC91AD90AE90AF90AD3
:10312000A6CF0FEF1FEF2FEF3FE0A601B701C501BC
:103130000E94421781111BC080E044C0A701960184
:1031400021503109410951092D833E834F8358870E
:10315000970186014D815E816F817885C5010E944E
:103160004217882349F3CD80DE80EF80F8844C1429
:103170005D046E047F0410F3D1014D915D916D915A
:103180007C91411551056105710541F4F1014082C1
:10319000518262827382911009C013C0930182012F
:1031A000C5010E9442178111F1CFC6CFFFEF4F1A20
:1031B0005F0A6F0A7F0AD5014D925D926D927C92F3
:1031C000139781E060960FB6F894DEBF0FBECDBFB7
:1031D000DF91CF911F910F91FF90EF90DF90CF90F3
:1031E000BF90AF909F907F906F905F904F903F9077
:1031F0002F900895AF92BF92CF92DF92EF92FF92FD
:103200000F931F93CF93DF9300D000D0CDB7DEB7DD
:103210005C016A017B0182E090E0A0E0B0E0F50192
:1032200080839183A283B3839E012F5F3F4FB701B9
:10323000A601C5010E945216882311F100E010E09A
:103240009801B701A601C5010E9442178823C1F069
:10325000C980DA80EB80FC80F5018789803129F410
:1032600088EF9FEFA0E0B0E004C088EF9FEFAFEFE2
:10327000BFE0C816D906EA06FB06B0F281E001C03D
:1032800080E00F900F900F900F90DF91CF911F91E2
:103290000F91FF90EF90DF90CF90BF90AF90089587
:1032A0008F929F92AF92BF92CF92DF92EF92FF9256
:1032B0001F93CF93DF93EC01142F70935F03609300
:1032C0005E03442341F1453010F080E0EFC040E060
:1032D00060E070E0CB010E94F1158823B1F320E19A
:1032E000129FF0011124E25FFA4F80818F7769F716
:1032F00084859585A685B78584369105A105B10598
:1033000020F3C084D184E284F384C114D104E104A5
:10331000F10421F4DACFC12CD12C760140E0C701B1
:10332000B6010E94F115882381F280916B03909180
:103330006C038115924049F630917003332329F2D2
:1033400080916E0390916F03892B09F4BECF209179
:103350006D03222309F4B9CF3A8B2C831D8630E00C
:1033600041E050E006C0812F8F5F8D87183008F054
:10337000ACCF1D85CA01012E02C0880F991F0A9487
:10338000E2F72817390779F7209176033091770310
:103390002115310519F040E050E008C02091840368
:1033A0003091850340918603509187032D833E839E
:1033B0004F83588780916E0390916F0346015701A8
:1033C000880E991EA11CB11C8B8A9C8AAD8ABE8A6C
:1033D000E0917103F0917203F98FE88FA09170036F
:1033E000B0E00E94EC1E680D791D8A1D9B1D6A8F3E
:1033F0007B8F8C8F9D8FB5E0EE0FFF1FBA95E1F7A5
:10340000E150FE4FEF2FFF27E695DC01CB018E0F39
:103410009F1FA11DB11D8E879F87A88BB98B8090A0
:103420007303909074038114910419F0A12CB12CB2
:1034300008C08090800390908103A0908203B09098
:103440008303A7019601281B390B4A0B5B0BDA019A
:10345000C901880D991DAA1DBB1D04C0B695A7956D
:10346000979587951A95D2F789879A87AB87BC87F6
:10347000853F3FE09307A105B10510F48CE014C02F
:10348000853F9F4FA105B10510F480E10DC08091EB
:103490008C0390918D03A0918E03B0918F038A8F3E
:1034A0009B8FAC8FBD8F80E28F8B81E0DF91CF91BE
:1034B0001F91FF90EF90DF90CF90BF90AF909F90C3
:1034C0008F9008952091900530E080919105281B00
:1034D0003109C9010895809191059091900589174E
:1034E00050F4E82FF0E0EE56FA4F208130E08F5F85
:1034F0008093910502C02FEF3FEFC9010895E0913D
:10350000910580919005E81730F4F0E0EE56FA4FFF
:10351000208130E002C02FEF3FEFC90108950895E8
:10352000CF92DF92EF92FF920F931F93CF93DF938F
:103530007C01CB018A0120916C05222391F0EB01E3
:103540006B01C40ED51E09C06991D701ED91FC91A4
:103550000190F081E02DC7010995CC15DD05A1F79B
:1035600003C0642F0E94F41BC801DF91CF911F910B
:103570000F91FF90EF90DF90CF900895CF93DF935E
:103580001F92CDB7DEB7698320916C052223D1F05D
:1035900020916D05203240F021E030E0FC013383C2
:1035A000228320E030E015C080916E05E82FF0E026
:1035B000E159FA4F998190838F5F80936E058093D4
:1035C0006D0505C061E0CE0101960E94F41B21E06B
:1035D00030E0C9010F90DF91CF910895FC01138273
:1035E000128248EE53E060E070E0448355836683C6
:1035F000778384EE91E09183808308951092910502
:103600001092900510926E0510926D050C943E1B61
:10361000862F413208F040E262E975E00E945C1BAF
:103620001092910580939005089521E00C94081B59
:1036300081E080936C0560938F0510926E05109267
:103640006D0508950C94181B0F93062F21E04091EF
:103650006D056FE675E080918F050E94A11B1092A9
:103660006E0510926D0510926C050F91089561E042
:103670000C94241B80E695E00C94EE1A1092BB0586
:1036800081E08093B9051092B80561E082E10E9463
:103690005C0461E083E10E945C04E9EBF0E080817E
:1036A0008E7F808380818D7F808388E48093B800C3
:1036B00085E48093BC000895413208F03FC09091AA
:1036C000BB059111FCCF91E09093BB052093B90508
:1036D0002FEF2093B2051092B705242F215020938D
:1036E000B6059093BA059091BA05880F892B8093FF
:1036F000BA058091B805813041F41092B8058091E7
:10370000BA058093BB0085EC01C085EE8093BC00B8
:103710008091BB058130E1F38091B705841710F4E7
:103720004091B7052CEB35E0FB01D90102C08D912A
:1037300081938A2F821B8417D0F301C040E0842F2D
:1037400008950F93413208F046C09091BB05911146
:10375000FCCF92E09093BB050093B9059FEF909347
:10376000B2051092B7054093B605FB016CEB75E00E
:10377000DB0102C091919D939A2F961B9417D0F371
:103780001092BA059091BA05880F892B8093BA05DB
:103790008091B805813041F41092B8058091BA0546
:1037A0008093BB0085EC01C085EE8093BC00222392
:1037B00021F08091BB058230E1F38091B2058F3F0B
:1037C00061F08091B205803251F08091B205803372
:1037D00041F483E007C081E005C080E003C082E0DF
:1037E00001C084E00F910895613298F42091BB05E7
:1037F000243089F46093B405FC018CED95E0DC0184
:1038000002C021912D932A2F281B2617D0F380E088
:10381000089581E0089582E0089585ED8093BC00CD
:103820008091BC0084FDFCCF1092BB05089585EC0F
:103830008093BC001092BB0508951F920F920FB6A3
:103840000F9211242F933F934F935F936F937F9326
:103850008F939F93AF93BF93EF93FF938091B900A2
:10386000887F803609F49FC058F5883209F45BC020
:1038700090F4803109F452C038F4882309F4F8C078
:10388000883009F0F9C04AC0883109F44CC0803250
:1038900009F0F2C05CC0803409F46BC038F48033A6
:1038A00009F455C0883309F0E7C054C0803509F4E5
:1038B00054C0883509F462C0883409F0DDC0DAC02C
:1038C000883909F4CBC0A8F4883709F46CC038F4FF
:1038D000883609F468C0803709F0CEC064C08838E3
:1038E00009F4BCC0803909F464C0803809F0C4C050
:1038F00060C0803B09F48AC038F4803A09F46BC098
:10390000883A09F0B9C082C0803C09F4ABC0883C59
:1039100009F4A8C0883B09F0AFC08DC08091BA05FA
:103920008093BB0012C09091B7058091B60598179F
:1039300088F58091B705E82FF0E0E454FA4F9081C4
:103940009093BB008F5F8093B70585EC88C0809310
:10395000B20590C08093B20556C08091B705909192
:10396000BB00E82FF0E0E454FA4F90838F5F809320
:10397000B7059091B7058091B6056DC08091B705E8
:103980009091BB00E82FF0E0E454FA4F90838F5FF2
:103990008093B7058091B90581116CC081E0809357
:1039A000B80584EA60C083E08093BB051092B3053C
:1039B000CCCF8091B305803208F050C08091B30520
:1039C0009091BB00E82FF0E0E050FA4F90838F5FBA
:1039D0008093B305BACF8091B305803230F4E09183
:1039E000B305F0E0E050FA4F10820E940D1C609188
:1039F000B305E091FC05F091FD0570E080E096E0F4
:103A000009951092B3050E94171C36C084E080937C
:103A1000BB051092B5051092B405E091FE05F0913A
:103A2000FF0509958091B405811105C081E080935F
:103A3000B4051092DC058091B505E82FF0E0E45262
:103A4000FA4F90819093BB008F5F8093B505909162
:103A5000B5058091B405981708F477CF85E8809371
:103A6000BC000AC085EC8093BC001092BB0504C06A
:103A70001092B2050E940D1CFF91EF91BF91AF9182
:103A80009F918F917F916F915F914F913F912F9176
:103A90000F900FBE0F901F901895FC0120812053AE
:103AA0002A3008F020E0FC0181818053FAE02F9F4A
:103AB000800D11240895DC01ED91FC910190F081BD
:103AC000E02D0994EF92FF920F931F93CF93DF9312
:103AD000EC018B017A01CB0109960E944D1D888370
:103AE000F80180818A3499F038F48434A9F186345D
:103AF000D9F0813499F51AC08E3461F118F48D34FF
:103B000069F51CC08F3421F1833541F51FC0F801E0
:103B10008181813639F082818E3611F486E01DC0B4
:103B200087E01BC081E019C082E017C0F8018281E4
:103B3000823711F484E011C088E00FC0F80182815F
:103B4000823711F483E009C085E007C089E005C031
:103B50008AE003C08BE001C08CE08983C801049631
:103B60000E944D1D8A83C7010E944D1D8B83C70192
:103B700003960E944D1D8C83C70106960E944D1D21
:103B80008D83DF91CF911F910F91FF90EF9008955A
:103B900081E008951F93CF93DF93EC0168E670E016
:103BA00080E695E00E94221B60912006709121061C
:103BB00080E695E00E945B1D2D811AE0822F612F27
:103BC0000E94F71E682F660F680F660F620F80E66F
:103BD00095E00E94BE1A2C81822F612F0E94F71E51
:103BE000682F660F680F660F620F80E695E00E94EF
:103BF000BE1A2B81822F612F0E94F71E682F660F3D
:103C0000680F660F620F80E695E00E94BE1A60E0C2
:103C100080E695E00E94BE1A2A81822F612F0E94C1
:103C2000F71E682F660F680F660F620F80E695E03B
:103C30000E94BE1A2981822F612F0E94F71E682FD1
:103C4000660F680F660F620F80E695E00E94BE1A4D
:103C50002881822F612F0E94F71E682F660F680F40
:103C6000660F620F80E695E00E94BE1A6091200602
:103C70007091210680E695E00E945B1D80E695E04C
:103C8000DF91CF911F910C94371B1F93CF93DF933C
:103C9000CDB7DEB72B970FB6F894DEBF0FBECDBF02
:103CA00068E670E080E695E00E94221B60912006A5
:103CB0007091210680E695E00E945B1D80E695E00C
:103CC0000E94371B47E050E068E670E080E695E030
:103CD0000E94151B80E695E00E946B1A8F7799274A
:103CE0009C01F4E035952795FA95E1F71AEF782FC6
:103CF000129F700D112480E695E07B870E946B1A5D
:103D00009C013327A4E035952795AA95E1F7682F04
:103D1000129F600D112480E695E06A870E946B1A5D
:103D20009C013327B4E035952795BA95E1F7582FD4
:103D3000129F500D112480E695E059870E946B1A5E
:103D400080E695E00E946B1A9C01332794E035953C
:103D500027959A95E1F7482F129F400D112480E690
:103D600095E048870E946B1A9C01332744E0359503
:103D700027954A95E1F7382F129F300D112480E6E0
:103D800095E03F830E946B1AFC01FF2754E0F595F4
:103D9000E7955A95E1F7282F1E9F200D11243F81AA
:103DA000488559856A857B8580E090E02B960FB623
:103DB000F894DEBF0FBECDBFDF91CF911F91089564
:103DC000A29FB001B39FC001A39F01D0B29F700D0D
:103DD000811D1124911D08950E94E01EA59F900D44
:103DE000B49F900DA49F800D911D11240895991BDF
:103DF00079E004C0991F961708F0961B881F7A95E2
:103E0000C9F780950895A1E21A2EAA1BBB1BFD01DC
:103E10000DC0AA1FBB1FEE1FFF1FA217B307E407A9
:103E2000F50720F0A21BB30BE40BF50B661F771F01
:103E3000881F991F1A9469F76095709580959095E1
:103E40009B01AC01BD01CF010895EE0FFF1F05904E
:103E5000F491E02D09940F931F93CF93DF93823059
:103E6000910510F482E090E0E0912406F09125069F
:103E700020E030E0C0E0D0E023C04081518148170D
:103E80005907A8F04817590761F482819381209758
:103E900019F09B838A832EC0909325068093240675
:103EA00029C02115310529F04217530710F0A90147
:103EB00002C0BE01DF0102811381EF019A01F80106
:103EC0003097D9F62115310509F1281B390B24301B
:103ED000310590F412968D919C911397611571059F
:103EE00021F0FB019383828304C090932506809385
:103EF0002406FD01329644C0FD01E20FF31F8193B9
:103F00009193225031092D933C933AC0209122067F
:103F100030912306232B41F42091020130910301BB
:103F20003093230620932206209100013091010155
:103F30002115310541F42DB73EB740910401509150
:103F40000501241B350BE0912206F0912306E217B0
:103F5000F307A0F42E1B3F0B2817390778F0AC01AC
:103F60004E5F5F4F2417350748F04E0F5F1F509389
:103F70002306409322068193919302C0E0E0F0E093
:103F8000CF01DF91CF911F910F910895EF92FF9292
:103F90000F931F93CF93DF93009709F48EC0DC013A
:103FA000129713961C921E921297E0902406F0909E
:103FB0002506E114F10489F42D913C911197280F05
:103FC000391F80912206909123068217930789F565
:103FD000B0932306A093220670C0E70120E030E0F2
:103FE00001C0EA01CA17DB0738F44A815B819E01F0
:103FF00041155105B1F722C0AC0142505109FA01F7
:10400000D383C28300811181BC01600F711F6C17C3
:104010007D0761F468817981600F711F6E5F7F4F4A
:10402000718360836A817B8173836283211531058B
:1040300029F4B0932506A09324063FC0F901B38369
:10404000A283E90149915991C40FD51FAC17BD074F
:1040500071F4DC019E918E91840F951F02969183DD
:10406000808312968D919C91139793838283A0E015
:10407000B0E002C0D7017C01F701828193810097F3
:10408000C9F7C701029620813181820F931F2091C9
:104090002206309123062817390779F4109729F45E
:1040A000109225061092240604C013961C921E92AC
:1040B0001297F0922306E0922206CDB7DEB7E6E033
:1040C0000C949520FB01DC0104C08D9101908019B6
:1040D00021F441505040C8F7881B990B0895FC010A
:1040E0008191861721F08823D9F799270895319770
:1040F000CF010895FB01DC014150504048F0019090
:104100000D920020C9F701C01D9241505040E0F7C8
:1041100008952A88398848885F846E847D848C84D9
:104120009B84AA84B984C884DF80EE80FD800C81E2
:104130001B81AA81B981CE0FD11D0FB6F894DEBFC5
:104140000FBECDBFED01089510E0CAEDD0E004C070
:10415000FE010E94271F2296CC3DD107C9F7F89493
:02416000FFCF8F
:1041620000002606200005000600070002000100EC
:104172000D004C4F4747455230302E4353560001F5
:10418200FFFFFFFF31303A30363A3537004D61726A
:10419200202033203230313300696E697469616CDA
:1041A200697A6174696F6E206661696C6564210069
:1041B200696E697469616C697A6174696F6E206491
:1041C2006F6E65006C6F676765722E637376004C65
:1041D2006F6767696E6720746F3A20004261726F81
:1041E20020003B006C69676874206C6576656C2002
:1041F200200054656D702076616C75652020004446
:104202006179202000486F75722020004D696E2070
:10421200200053656300000000008D051807280583
:1042220057053B057B05000000005F087D08630918
:10423200B308BD0875082F0000000000A515180777
:1042420000000000BE1A901A621A6B1A7F1A8F1AA7
:00000001FF
